:10000000AEC70000DDC70000DBC70000D9C7000095
:10001000D7C70000D5C70000D3C70000D1C7000074
:10002000CFC70000CDC70000CBC70000C9C7000084
:10003000C7C70000C5C70000C3C70000C1C7000094
:10004000BFC70000BDC70000BBC70000B9C70000A4
:10005000B7C70000B5C70000B3C700000C949F2CC1
:10006000AFC70000ADC70000ABC70000A9C70000C4
:10007000A7C70000A5C70000A3C70000A1C70000D4
:100080009FC700009DC700009BC7000099C70000E4
:100090000C94452695C7000093C700000C94BB2222
:1000A0008FC700008DC700008BC7000089C7000004
:1000B00087C7000085C7000083C7000081C7000014
:1000C0007FC700007DC700007BC7000079C7000024
:1000D00077C7000075C7000073C7000071C7000034
:1000E0006FC70000770D770D770D770D770D770DC2
:1000F000770D770D770D770DCD0DCD0DCD0DCD0D88
:10010000CD0DCD0DC80CD20CCD0DDC0CFA0CFE0CB7
:10011000FE0CFE0CFE0CCD0DCD0DCD0DCD0D0D0D3F
:10012000220DCD0D370D450DCD0DCD0DCD0DCD0DC8
:10013000CD0DCD0D520D540D570D590D5C0D5E0DAD
:10014000610D630DCD0DCD0DCD0D670D6B0D6F0DDB
:10015000730D120E1A0EC90E220E400E440E440EDE
:10016000440E440EC90EC90EC90EC90E530E690EB7
:10017000C90EC90EC90EC90EC90EC90EC90EC90EC7
:10018000C90E7F0E810E840E860E890E8B0E8E0E8A
:10019000900EC90EC90EC90E940E980E9C0EA00E9C
:1001A000472B4A2B392B3D2B432B812B4E2B522B8C
:1001B000582B5C2B602B662B6A2B6E2B812B742BA0
:1001C000782B7C2B202020312E302E3200205243E1
:1001D000352058504E4554001E003F007F80FFC020
:1001E000FFC0FFC0FFC07F803F001E000000000076
:1001F000C0000CCC0004080040C08063F1800408FB
:10020000000C0C00C804C0E804C00804000C0C007A
:10021000240900661980021000033000000000016C
:10022000E00001E00001200000C00000000000002C
:100230000000000FFF80000FFF800E0E03801E06DF
:1002400003001E0603001F0607003FFFFF803FFF5D
:10025000FF807FFFFF807FFFFF803FFF83803FFFA6
:1002600001803FFF118063C7118061830180618736
:10027000830033C6C7003E7CFE000810100000005B
:1002800000007FFC00007FFC0000701C1C00301888
:100290001E0030181E0038183E007FFFFF007FFF51
:1002A000FF007FFFFF807FFFFF80707FFF00603FC8
:1002B000FF00623FFF006238F1806030618030787B
:1002C000618038D8F3001FCF9F0002020400454D23
:1002D000455247454E43590053484F5254005345E9
:1002E0005256494345004F4646004F4E00DB40A45E
:1002F000A62EAF2000A1C8D300408DAED580A800A7
:10030000006000000000000000000000000000008D
:10031000E00000000000000000000000000001E01C
:100320000000000000000000000000000001F000DC
:1003300000000000000000000000000003F00000CA
:10034000000000000000000000000007F0000000B6
:100350000000000000000000000007F8000000009E
:100360000000000000000000000FF800000003C0C3
:10037000007E000001E0007F0FF800000003C000D5
:10038000FE000001E000FFEFF800000003C000FEE7
:10039000000001E000FFFFF800000003C000F000D3
:1003A00000000F007FFE7FC0000003C000F00000CF
:1003B000000F003FFE7FF83FF1FBCFFCFEF3BC3D9A
:1003C000EFE01FFE7FFF7FFBFFDFFEFEFFBC3DEF88
:1003D000E01FC6FFFF7FFBFFDFFEFEFFBC3DEFE03F
:1003E0000FE3C7FE787BC3DE1EF0FFBC3DEF0007C6
:1003F000FF87FC787BC3DE1EF0F83C3DEF0001FF79
:10040000FFF0007BC3C01EF0F03C3DEF0001F37F26
:10041000E03FFBC3CFFEF0F03C3DEF0003E33F8045
:100420007FFBC3DFFEF0F03C3DEF0007E73C0078C8
:100430007BC3DE1EF0F03C3DEF0007FFBE00787B83
:10044000C3DE1EF0F03C3DEF0007FFFE00787BC3EB
:10045000DE1EF0F03C3DEF000FFFFE007FFBFFDFF4
:10046000FEF0F03FFDEFE00FFFFF007FFBFFDFFE40
:10047000F0F03FFDEFE00FF9FF003E79F9CF9EF07D
:10048000F01F3DE7E01FF1FF00000000000000004A
:10049000000000001F80FF007FFFFFFFFFFFFFFF46
:1004A000FFFFE01C007F007FFFFFFFFEB46D888D23
:1004B00018E000001F007FFFFFFFFE95AD7DB577C0
:1004C000E000000F007FFFFFFFFEA5AD9D8D19E04E
:1004D000000006007FFFFFFFFEB5ADEDB57EE0003A
:1004E0000000000001800000000000000000000388
:1004F0008000000000000000000007C000000000B5
:10050000000000000007C000000000000000000024
:100510000FC00000000000000000001FE00000000D
:100520000000000000001FE00000000000000000CC
:10053000003FE00000000000000000003FF000006D
:10054000000000000000007FF0000000000000003C
:100550001FF87FF0000000000000003FFE7FF00069
:100560000000000000003FFF7FF0000000000000DE
:10057000001FFFFBE0000000000000000FFFF9FF7C
:10058000C00000000000000FFFF9FFF800000000AD
:10059000000007FFF1FFFF00000000000003FC73F4
:1005A000FFFF80000000000001FE3FFFFF80000011
:1005B00000000000FF1E0FFF000000000000007F91
:1005C000FE1FFC000000000000003FFFFFF80000DD
:1005D00000000000000FDFFFE0000000000000004E
:1005E0001F19FFC0000000000000003F3CFF00009A
:1005F0000000000000007E7CF80000000000000009
:10060000007FFE7C0000000000000000FFFFFC00F7
:1006100000000000000000FFFFFE000000000000DE
:100620000000FFFFFE0000000000000001FFEFFEE1
:100630000000000000000001FFCFFE0000000000ED
:10064000000003FF07FE0000000000000003FC079D
:10065000FE0000000000000003F003FE00000000A8
:10066000000000018000FE0000000000000000000B
:10067000007E000000000000000000003E000000BE
:10068000000000000000000C0000000000000780D7
:1006900000FC000003C0000000078001FC00000314
:1006A000C0000000078001FC000003C0000000073C
:1006B0008001E00000001E000000078001E0000053
:1006C000001E007FE3F79FF9FDE7787BDFC0FFF7AF
:1006D000FFBFFDFDFF787BDFC0FFF7FFBFFDFDFF24
:1006E000787BDFC0F0F787BC3DE1FF787BDE00F070
:1006F000F787BC3DE1F0787BDE0000F787803DE1C5
:10070000E0787BDE007FF7879FFDE1E0787BDE000D
:10071000FFF787BFFDE1E0787BDE00F0F787BC3DA7
:10072000E1E0787BDE00F0F787BC3DE1E0787BDE3E
:1007300000F0F787BC3DE1E0787BDE00FFF7FFBF0C
:10074000FDE1E07FFBDFC0FFF7FFBFFDE1E07FFBE6
:10075000DFC07CF3F39F3DE1E03E7BCFC0000000B3
:100760000000000000000000FFFFFFFFFFFFFFFF91
:10077000FFFFC0FFFFFFFFFD68DB111A31C0FFFF65
:10078000FFFFFD2B5AFB6AEFC0FFFFFFFFFD4B5B36
:100790003B1A33C0FFFFFFFFFD6B5BDB6AFDC0430D
:1007A0004F4E4E454354494E470000002000230061
:1007B000260029002C002F00320000010000030158
:1007C000060109012200FF2100000103070F1F3F5E
:1007D0007F0080C0E0F0F8FCFE00000000003E5BFF
:1007E0004F5B3E3E6B4F6B3E1C3E7C3E1C183C7E7E
:1007F0003C181C577D571C1C5E7F5E1C00183C1863
:1008000000FFE7C3E7FF0018241800FFE7DBE7FF5E
:1008100030483A060E2629792926407F05050740EB
:100820007F05253F5A3CE73C5A7F3E1C1C08081CAC
:100830001C3E7F14227F22145F5F005F5F06097FEA
:10084000017F006689956A606060606094A2FFA283
:100850009408047E040810207E201008082A1C0832
:10086000081C2A08081E101010100C1E0C1E0C303C
:10087000383E3830060E3E0E060000000000000034
:100880005F00000007000700147F147F14242A7FF4
:100890002A122313086462364956205000080703C1
:1008A00000001C2241000041221C002A1C7F1C2A3F
:1008B00008083E0808008070300008080808080092
:1008C0000060600020100804023E5149453E00428D
:1008D0007F400072494949462141494D331814125D
:1008E0007F1027454545393C4A4949314121110985
:1008F000073649494936464949291E000014000077
:100900000040340000000814224114141414140090
:100910004122140802015909063E415D594E7C12DC
:1009200011127C7F494949363E414141227F414174
:10093000413E7F494949417F090909013E414151F1
:10094000737F0808087F00417F41002040413F013C
:100950007F081422417F404040407F021C027F7F7D
:100960000408107F3E4141413E7F090909063E418E
:1009700051215E7F09192946264949493203017FE1
:1009800001033F4040403F1F2040201F3F40384070
:100990003F631408146303047804036159494D4309
:1009A000007F4141410204081020004141417F0481
:1009B0000201020440404040400003070800205468
:1009C0005478407F284444383844444428384444C8
:1009D000287F385454541800087E090218A4A49C97
:1009E000787F0804047800447D40002040403D00AA
:1009F0007F1028440000417F40007C047804787C0C
:100A0000080404783844444438FC18242418182472
:100A10002418FC7C08040408485454542404043F5B
:100A200044243C4040207C1C2040201C3C40304062
:100A30003C44281028444C9090907C4464544C448E
:100A4000000836410000007700000041360800022F
:100A5000010204023C2623263C1EA1A161123A4059
:100A600040207A38545455592155557941225454CF
:100A70007842215554784020545579400C1E5272CA
:100A800012395555555939545454593955545458A7
:100A90000000457C410002457D420001457C407DCF
:100AA0001211127DF0282528F07C54554500205461
:100AB000547C547C0A097F4932494949323A4444BA
:100AC000443A324A4848303A4141217A3A42402039
:100AD00078009DA0A07D3D4242423D3D4040403DCA
:100AE0003C24FF2424487E4943662B2FFC2F2BFFF8
:100AF0000929F620C0887E0903205454794100005A
:100B0000447D413048484A32384040227A007A0ACF
:100B10000A727D0D19317D2629292F282629292998
:100B20002630484D402038080808080808080838CA
:100B30002F10C8ACBA2F102834FA00007B00000830
:100B4000142A142222142A14085500550055AA55B7
:100B5000AA55AAFF55FF55FF000000FF0010101016
:100B6000FF00141414FF001010FF00FF1010F0100D
:100B7000F0141414FC001414F700FF0000FF00FF31
:100B80001414F404FC141417101F10101F101F1459
:100B900014141F00101010F0000000001F1010109F
:100BA000101F10101010F010000000FF1010101097
:100BB0001010101010FF10000000FF140000FF00C4
:100BC000FF00001F10170000FC04F4141417101786
:100BD0001414F404F40000FF00F714141414141493
:100BE00014F700F7141414171410101F101F141406
:100BF00014F4141010F010F000001F101F0000007B
:100C00001F14000000FC140000F010F01010FF1082
:100C1000FF141414FF141010101F00000000F01037
:100C2000FFFFFFFFFFF0F0F0F0F0FFFFFF0000001C
:100C30000000FFFF0F0F0F0F0F3844443844FC4AE9
:100C40004A4A347E02020606027E027E026355494B
:100C500041633844443C04407E201E2006027E024C
:100C60000299A5E7A5991C2A492A1C4C7201724CCD
:100C7000304A4D4D303048784830BC625A463D3E8F
:100C8000494949007E0101017E2A2A2A2A2A444430
:100C90005F444440514A444040444A51400000FFB0
:100CA0000103E080FF000008086B6B083612362451
:100CB00036060F090F06000018180000001010007B
:100CC0003040FF0101001F01011E00191D17120015
:100CD0003C3C3C3C00000000005245534554202160
:100CE0002100434F4E464947000000000000000726
:100CF000F0000007F000000FF000003FF000003FA0
:100D0000F000007FF00001FFE00003FF800003FF20
:100D1000800007FF00001FFC00001FFC00003FF8E0
:100D20000000FFF000FFFFFFF0FFFFFFF0FFFFFFFD
:100D3000F0FFFFFFF0FFFFFFF0FFFFFFF0FFFFFFFF
:100D4000F0000000000000000000000000000000B3
:100D50000000000000000000000000210024002727
:100D6000002A002D003000330001010000040107BB
:100D7000010A0100002200250028002B002E00316E
:100D800000340002010000050108010B0105050502
:100D900005070508080808020202020A0A080804F2
:100DA0000404040101010101010101030303030320
:100DB000030303040707070C0C0C0C0C0C0C0C02AF
:100DC00002020206060606060606060B0B0B0B0BB6
:100DD0000B0B0B01021020200808102040102040AF
:100DE00080020102010804020101020408102040EF
:100DF000808040201008040201800402018040200D
:100E00001008040201080402010102040810204035
:100E100080010204081020408000000A0B02090C27
:100E20000D0E080703040100000000000000000090
:100E300000000000000000000000000000000000B2
:100E4000000000000012111000000000000000006F
:100E50000000000000000000000000000000000092
:100E6000000000000007F0000007F000000FF00095
:100E7000003FF000003FF000007FF00001FFE000C5
:100E800003FF800003FF800007FF00001FFC00003D
:100E90001FFC00003FF80000FFF000FFFFFFF0FF25
:100EA000FFFFF08000001080000010800000108024
:100EB000000010FFFFFFF000000000000000000035
:100EC0000000000000000000000000000000000022
:100ED000000000000007F0000007F000000C100008
:100EE00000381000003810000070700001C0E000F1
:100EF0000383800003838000060700001C0C0000B1
:100F00001C0C000038380000E07000FFC1FFF0FF4B
:100F1000C1FFF08003FFF08007FFF08007FFF08043
:100F20001FFFF0FFFFFFF0000000000000000000C6
:100F3000000000000000000000000000000000545D
:100F400055524E4F555400474554204C4F43005383
:100F5000454C454354204C4F4300D5392F3B112479
:100F60001FBECFEFD1E2DEBFCDBF00E00CBF13E06C
:100F7000A0E0B2E0E6E2FAE700E00BBF02C00790B3
:100F80000D92AA32B107D9F725E0AAE2B3E001C079
:100F90001D92A03CB207E1F717E0CEEAD7E000E0EF
:100FA00006C021970109802FFE010E94B53BCD3A72
:100FB000D10780E00807A9F70E94BE2F0C94023DDC
:100FC0001FC880916C03882331F088ED92E00E9465
:100FD0006A12109204020895CF93DF93EB01C40FBD
:100FE000D11DE1E0F0E00C2E02C0EE0FFF1F0A94CD
:100FF000E2F7A0911505B0911605EA27FB27F093BB
:101000001605E0931505242F260F02C0F695E795E7
:10101000CA95E2F74E2F4170682F892F0E948E28C3
:101020000E94932C6093400370934103809342038A
:10103000909343030E94932C6093110570931205C3
:1010400080931305909314058091150590911605D2
:10105000DF91CF910895EF92FF920F931F93CF935B
:10106000DF931F92CDB7DEB78C0169830E945727AB
:10107000E82EF12CFE2CEE24C80101960E94572781
:101080009701282BC9012091BB0569816217F9F0EE
:101090008F3037E29307D8F411E010931A0590933C
:1010A0001C0580931B056093BB0580E190E00E94C6
:1010B0005527E0915C03F0915D03848195819093C5
:1010C0006E0380936D0310936C0310936F030F9066
:1010D000DF91CF911F910F91FF90EF900895CF93E3
:1010E000DF9380916C03882309F431C180E090E0A4
:1010F0000E945727883281F0C0E0D0E06FEFCE0128
:101100000E9455272196C11520E1D207B9F768E260
:1011100080E090E00E94552786E090E00E945727EB
:101120009FEF980F9F3118F48093020208C08EE160
:10113000809302026EE186E090E00E945527C09104
:1011400002021092AF041092AE041092B0041092FA
:10115000B1041092B2041092B3040E94932C6093D5
:10116000A7047093A8048093A9049093AA0480E034
:1011700090E0892B21F08091AE040E940000C09382
:10118000710386E18093720361E00E94B12B60E0FD
:10119000809172030E94822BC09171038C2F0E9458
:1011A0005D14282F30E0316030937803209377036B
:1011B0008C2F80640E945D14282F30E031603093C2
:1011C0007603209375038C2F80660E945D1490E057
:1011D00091609093740380937303F8941092CD0000
:1011E0008FE08093CC001092C8008CE98093C900F6
:1011F00086E08093CA00789480E793E09093AF05EF
:101200008093AE0582E090E00E945727882351F03A
:10121000813019F480930F0507C060E082E090E010
:101220000E94552710920F0584E090E00E945727F6
:10123000882329F0813031F4809348030AC010924A
:10124000480307C01092480360E084E090E00E94E9
:10125000552780E190E00E9457278093BB0581309D
:1012600021F1A0F08230B9F1833009F043C08DE064
:1012700090E00E945727C82FD0E0DC2FCC27D093D6
:101280001C05C0931B058EE090E01DC088E090E037
:101290000E945727C82FD0E0DC2FCC27D0931C0505
:1012A000C0931B0589E090E00EC08AE090E00E94A8
:1012B0005727C82FD0E0DC2FCC27D0931C05C09334
:1012C0001B058BE090E00E945727C82BD0931C058C
:1012D000C0931B0528C08BE090E00E945727C82FC1
:1012E000D0E0DC2FCC27D0931C05C0931B058CE0ED
:1012F00090E0E9CF83E090E090931C0580931B057C
:101300001092BB0560E088E090E00E945527609154
:101310001B0589E090E00E9455276091BB0580E1A4
:1013200090E00E94552780911B0590911C0580310B
:10133000974230F083E090E090931C0580931B056A
:1013400060911B0580911C05DF91CF9160C6DF91F4
:10135000CF910895DF92EF92FF920F931F93CF9357
:10136000DF93D62E082F10E0C8010E945727C82F00
:10137000D0E0DC2FCC27D093BA05C093B905C801C3
:1013800001960E9457279E01282BC9019093BA0508
:101390008093B905803137E2930708F047C04D2D9F
:1013A00048606FEF680F0197892F0E94E62AE12CB1
:1013B000F12C08E010E026E230E040E050E069E186
:1013C00070E08EEC94E00E94A91881E08093E20422
:1013D00089E190E09093DB048093DA041092DD04BD
:1013E0001092DC046091B9057091BA0580E090E03C
:1013F0004AE00E949512D11003C080EC92E002C036
:1014000082EC92E00E9494120E94932C60933C0321
:1014100070933D0380933E0390933F03DF91CF9100
:101420001F910F91FF90EF90DF90F2C6DF91CF9167
:101430001F910F91FF90EF90DF9008954F925F9270
:101440006F927F92AF92BF92CF92DF92EF92FF9214
:101450000F931F93CF93DF93E12CF12C06E310E061
:101460002FE730E04AE050E060E070E08EEC94E07E
:101470000E94A91881E090E09093E1048093E00439
:101480009093DF048093DE0482E08093E204C3E063
:10149000D0E0D093DB04C093DA048BE090E090932B
:1014A000DD048093DC0460911B0570911C0580E0D5
:1014B00090E04AE00E949512D093DB04C093DA04D6
:1014C0008FE190E09093DD048093DC0480911E0511
:1014D00060911D05823029F4E62FF0E0EC57FD4FB6
:1014E000608170E080E090E04AE00E949512E12C7B
:1014F000F12C07E110E02DE130E04AE050E065E436
:1015000070E08EEC94E00E94A91880911F0554E1D0
:10151000E52EF12C0AE110E0813019F42EE732E0DB
:1015200002C02EE232E04AE050E066E470E08EEC69
:1015300094E00E94D512E12CF12C08E010E02CE19F
:1015400030E040E050E064E670E08EEC94E00E9411
:10155000A91881E08093E20484E690E09093DB0494
:101560008093DA041092DD041092DC048091BB05B4
:10157000813059F038F0823059F0833061F48AECD0
:1015800092E00BC084EC92E008C086EC92E005C0CB
:1015900088EC92E002C08CEC92E0C6D78EE690E038
:1015A0009093DB048093DA041092DD041092DC0443
:1015B00080911E05823039F0843041F0811109C0DC
:1015C0008EEC92E005C082ED92E002C081ED92E0E7
:1015D000ABD78091200580FF0EC046E1E42EF12CB0
:1015E00002E110E02CEE31E040E250E066E470E011
:1015F0008EEC94E0DAD71092E1041092E00410929D
:10160000DF041092DE04C4E0D0E0412C512C320102
:101610004394CC24C394D12C38E3A32EB12C8091D5
:101620002005909121059601042C02C0220F331F42
:101630000A94E2F782239323892B11F18AE0E82EA2
:10164000F12C0AE010E028ED31E046E350E0BE0165
:101650008EEC94E0AAD7CE0102969093DB0480939F
:10166000DA04B092DD04A092DC048AE0481629F086
:101670004AE0C301B20159D703C085ED92E054D7C7
:101680008FEF481A580A680A780A2C96CC37D10589
:1016900031F681E090E09093E1048093E004909330
:1016A000DF048093DE04B4D510921905DF91CF9149
:1016B0001F910F91FF90EF90DF90CF90BF90AF9070
:1016C0007F906F905F904F90089580916C03882376
:1016D000C9F086EE92E0FED680910402811110C01E
:1016E00010922B0310922A0310921D0560911B0586
:1016F00020E040911E0580911C05F4D79FDE02C0BA
:1017000010920402809149038823C9F120914A0371
:101710002A3018F0243179F1089540912A0350912C
:101720002B033AE0349FC001359F900D1124820FA6
:10173000911D90932B0380932A03873027E892070B
:1017400081F4E0915603F091570384819581909341
:101750006E0380936D0381E080936C0380936F032D
:1017600007C08830974820F010922B0310922A036C
:1017700010924903089510922B0310922A030895A2
:10178000EF92FF920F931F93E12CF12C0AE010E0EF
:1017900024E130E040E050E065E470E08EEC94E05D
:1017A0000E94A918EEECF4E081E0848B86E490E0DE
:1017B000958784871786168687ED92E059D68BED3C
:1017C00092E056D61F910F91FF90EF9021C5EF92B6
:1017D000FF920F931F93E12CF12C0AE010E024E11B
:1017E00030E040E050E065E470E08EEC94E00E9470
:1017F000A918EEECF4E081E0848B86E490E0958714
:101800008487178616868EED92E032D68BED92E0B5
:101810002FD61F910F91FF90EF90FAC4CF92DF92D5
:10182000EF92FF920F931F93CF93DF93EC01162F4C
:10183000672F6A010E945527612FCE0101960E94F1
:101840005527E12CF12C08E010E02AE030E040E0E0
:1018500050E06EE670E08EEC94E00E94A918EEEC89
:10186000F4E08EE690E0958784871786168681E0FF
:10187000848BC601DF91CF911F910F91FF90EF9064
:10188000DF90CF9051C6EF92FF921F93CF93DF93DB
:101890001F92CDB7DEB77C01162F672F49830E94B8
:1018A0005527612FC70101960E9455274981642F52
:1018B00080E190E00F90DF91CF911F91FF90EF902A
:1018C0000C945527EF92FF920F931F93CF93DF93C2
:1018D000EC01E12CF12C08E010E029E030E040E0E0
:1018E00050E064E670E08EEC94E00E94A918EEEC03
:1018F000F4E084E690E0958784871786168681E079
:10190000848BCE0111D6DF91CF911F910F91FF9063
:10191000EF907EC4EF92FF920F931F93E12CF12C76
:101920000AE010E024E130E040E050E065E470E0DF
:101930008EEC94E00E94A9181F910F91FF90EF90F8
:1019400067C480916C03882359F010921A058AEEBF
:1019500092E0C0D573DD1092040210921005DACF28
:101960008091190581116ADD80914903882309F46A
:1019700014C160914A03862F90E08733910508F0E7
:101980000CC1FC018827EE58FF4F8F4F0C94B53BDC
:1019900010921805809117058111ACC080E88093E2
:1019A0001705A8C01092180580911705803809F016
:1019B000A1C0109217059EC0809115059091160543
:1019C0008E7F909316058093150560911B0520E08E
:1019D00040E080911C050E948E28109249030E94CD
:1019E000932C609340037093410380934203909340
:1019F0004303089540E060E070E005C070E064518A
:101A000071094091100580911B0590911C05E4DA45
:101A100090931605809315056AC010924903809132
:101A20001005877F09F095C084E0809310050E941F
:101A3000932C609311057093120580931305909376
:101A400014059ECE10924903809110058B7F09F0FA
:101A500080C088E0809310050E94932C609311054C
:101A6000709312058093130590931405B0CE809166
:101A70001705803821F4809118058F5F10C0809180
:101A80001805882309F48ACF09C08091170580388A
:101A900091F780911805882309F48BCF81508093AA
:101AA000180528C060E001C061E082E10EC060E07E
:101AB00001C061E084E109C060E001C061E086E14D
:101AC00004C060E001C061E088E144DC10C060E077
:101AD00088E090E00BC061E08AE090E007C062E03F
:101AE0008BE090E003C063E08DE090E0B4DA109208
:101AF000490308950E94932C60934003709341031F
:101B000080934203909343031092490390911E05E2
:101B100060911B0580911C059230F9F0943079F1A9
:101B2000913091F4909118059F3018F09EE09093B9
:101B30001805E0911805F0E0E55FFD4F20819091D8
:101B40001705292B41E0CED560911B0580911C051E
:101B50005ED2E0DE109210050895909118059D3137
:101B600018F09CE190931805E0911805F0E0E55F0E
:101B7000FD4F208190911705292B42E0E4CF9091F1
:101B8000180597FF03C09FE790931805209117054C
:101B900090911805292B44E0D6CF0895CF93DF9379
:101BA0001F921F92CDB7DEB780916C03882309F195
:101BB00080E889838A8362E0CE01019650D18EEC61
:101BC00092E088D480910402811110C010922B03FE
:101BD00010922A0310921D0560911B0520E0409190
:101BE0001E0580911C057ED529DCD3C0109204020D
:101BF000D0C080911905811121DC8091490388238F
:101C000009F4C7C060914A03862F90E0FC017097E9
:101C1000E732F10508F0BDC08827E755FF4F8F4F29
:101C20000C94B53B80911705811191C080E8809399
:101C300017058DC080911705803809F088C0109273
:101C4000170585C080911505909116058E7F90939C
:101C500016058093150560911B0520E040E08091FA
:101C60001C050E948E28109249030E94932C6093B9
:101C7000400370934103809342039093430389C0D0
:101C800040E060E070E005C070E06451710940918F
:101C9000100580911B0590911C059ED99093160507
:101CA0008093150551C01092490380911005877FDC
:101CB00009F06CC084E0809310050E94932C60931F
:101CC000110570931205809313059093140558DD48
:101CD00060C010924903809110058B7F09F056C0B7
:101CE00088E0809310050E94932C609311057093F7
:101CF0001205809313059093140569DD4AC060E0D6
:101D000001C061E082E10EC060E001C061E084E1F9
:101D100009C060E001C061E086E104C060E001C08C
:101D200061E088E117DB10C060E088E090E00BC064
:101D300061E08AE090E007C062E08BE090E003C0E1
:101D400063E08DE090E087D91092490322C01092A1
:101D50004903109218050E94932C609340037093DE
:101D60004103809342039093430360911B052091AC
:101D7000170580911805282B40911E0580911C05A0
:101D8000B1D460911B0580911C0541D1C3DD109237
:101D900010050F900F90DF91CF9108959CD5EEEC38
:101DA000F4E082E0848B81E090E0938B828B918BD6
:101DB000808B158614868AE190E0978786878DEC64
:101DC00091E067D38BED92E053D384EC91E061D343
:101DD0001FC280916C03882331F0E0DF8EED92E02A
:101DE00079D310920402089529E0829FC001112442
:101DF00080599C4FFC01E655FF4F20812F3FE1F4B5
:101E0000319620812F3FC1F4329620812F3FA1F4DB
:101E1000319620812F3F81F4319620812F3F61F44C
:101E2000319620812F3F41F4319620812F3F21F4BC
:101E3000319681E09081911180E008959C01FC0130
:101E400090E070E061507109AF01421B530B4617DF
:101E500057071CF481919827F7CF90830895EAE8FB
:101E6000F3E020E030E0408141111BC079E0729F37
:101E7000A001739F500D1124FA01E059FC4F628FAD
:101E8000FC0180E090E0861750F42191DC01A40F62
:101E9000B51FA059BC4F5B962C930196F4CF81E0FF
:101EA00008952F5F3F4F399620313105E1F680E0EC
:101EB0000895EF92FF920F931F93CF93DF93F82E25
:101EC000E62E00E713E0C0E0D0E0F801E655FF4F52
:101ED00080818E1104C0319680818F1521F08C2F66
:101EE00083DF882359F08C2F7FDF8823B1F189E0CD
:101EF0008C9F90018D9F300D112418C02196075F93
:101F00001F4FCF30D10509F7E2E2F4E090E0C0E0E6
:101F10008FEF2081281710F4822FC92F39969F5FE9
:101F20009F30B9F789E0C89F9001112420593C4F98
:101F3000F901E655FF4FE0823196F08231968BE051
:101F400080833196108231961082319610823196BC
:101F5000108231961082319610828C2FDF91CF91B2
:101F60001F910F91FF90EF9008956F927F928F9243
:101F7000AF92CF92EF92FF920F931F93CF93DF9385
:101F80001F92CDB7DEB7182FF62E498392DF29E0D6
:101F9000829FC00111249C0120593C4F3901F90155
:101FA000E455FF4F9081329620813196A080319682
:101FB000808031968081322F3F71C32E25FBEE2425
:101FC000E0F83497292F237093FB992790F94981E2
:101FD0004F938F930081492F6F2D812F0E94851C75
:101FE0000F900F90F301EE54FF4F80818F3F11F05F
:101FF0008F5F80830F90DF91CF911F910F91FF90A2
:10200000EF90CF90AF908F907F906F900895EF9268
:10201000FF920F931F93CF93DF9300D01F921F92D5
:10202000CDB7DEB7182F062F40E09FDF602F812F3E
:1020300040DF282F30E099E0899FF0011124EE5D08
:10204000FB4F80818F3F11F08F5F808389E0829FFB
:10205000F001839FF00D1124E45EFB4F808183FF2C
:102060001FC08091A1049091A204892BC9F4802FF4
:1020700090E0912B9093A2048093A104FE013196ED
:102080007F0185E011928A95E9F783EE89831B83AE
:102090000C8365E0C701D2DE65E0C701E0DE01C068
:1020A00080E00F900F900F900F900F90DF91CF91E5
:1020B0001F910F91FF90EF900895FF920F931F9340
:1020C000CF93DF93EC01F62E8091EA049091EB041C
:1020D000009709F451C02091EE0431E0309355038C
:1020E000209354031092530310925203DC01ED919C
:1020F000FC910190F081E02D60E019958E01D1E016
:10210000CF0DFF24F3948091EA049091EB04C01763
:1021100061F1D032C8F00E94FD218091EE04F0926E
:1021200055038093540310925303109252038091ED
:10213000EA049091EB04DC01ED91FC910190F081B7
:10214000E02D60E01995D1E08091EA049091EB04D4
:10215000F8016491DC01ED91FC910190F081E02D9A
:102160001995DF5F0F5F1F4FCECFDF91CF911F918A
:102170000F91FF900C94FD21E091FA04F091FB0483
:102180002081809100058095822380838E01C60F77
:10219000C017C1F1F80184912091E8043091E9045D
:1021A000232B19F00E94F3212AC028E030E040E8F8
:1021B000E091F604F091F7049091FE04542F582317
:1021C00019F05081952B03C05081909595239083F1
:1021D000E091F804F091F90450819091FF04952B5F
:1021E0009083E091F804F091F90450819091FF04FC
:1021F000909595239083469521503109C9F60F5F3C
:102200001F4FC6CFDF91CF911F910F91FF9008957F
:10221000CF92DF92EF92FF920F931F93CF93DF93B2
:102220001F92CDB7DEB78091EA049091EB04892B21
:1022300059F0609102057091030580910405909119
:1022400005050E94EC2316C08091E8049091E904F2
:10225000892B31F080910B0590910C050E94FA2199
:10226000E091FC04F091FD0490818091010580953E
:102270008923808365E084EC97E01FDF6091D204BE
:1022800061508EEC94E00E945A222091D404309147
:10229000D504C901079697FD079623E09595879584
:1022A0002A95E1F72091D2043091D304829F8001D6
:1022B000839F100D929F100D1124E090EC04F0907C
:1022C000ED048091EA049091EB040E0D1F1D009720
:1022D00009F44EC02091EE0431E030935503209371
:1022E00054031092530310925203DC01ED91FC91C0
:1022F0000190F081E02D60E41995670121E0FF2451
:10230000F3948091EA049091EB04C016D10669F130
:102310002032C8F00E94FD218091EE04F092550316
:102320008093540310925303109252038091EA0455
:102330009091EB04DC01ED91FC910190F081E02D96
:1023400060E4199521E08091EA049091EB04F60194
:1023500061916F01DC01ED91FC910190F081E02D24
:102360002983199529812F5FCCCF0E94FD2143C07D
:10237000E091FA04F091FB04908180910005892B93
:102380008083E016F106B9F1F70181917F01209178
:10239000E8043091E904232B19F00E94F321F1CFD6
:1023A00028E030E040E8E091F604F091F7049091E5
:1023B000FE04542F582319F05081952B03C05081EF
:1023C000909595239083E091F804F091F904508161
:1023D0009091FF04952B9083E091F804F091F9041B
:1023E00050819091FF0490959523908346952150BC
:1023F0003109C9F6C6CF8091EA049091EB04892B8C
:1024000099F06091060570910705809108059091FB
:1024100009050F90DF91CF911F910F91FF90EF90E1
:10242000DF90CF900C94EC23E091FC04F091FD043C
:10243000908180910105892B80838091E80490919F
:10244000E904892B59F00F90DF91CF911F910F91E3
:10245000FF90EF90DF90CF900C94F2210F90DF91DE
:10246000CF911F910F91FF90EF90DF90CF90089543
:10247000009761F0FC0101900020E9F73197AF016E
:10248000481B590BBC018EEC94E045C280E090E003
:1024900008950F931F93CF93DF938C01C0E0D0E09A
:1024A000F801EC0FFD1F6491662371F0E091CE04FA
:1024B000F091CF040190F081E02D8EEC94E019951D
:1024C000892B11F02196ECCFCE01DF91CF911F9196
:1024D0000F910895EF92FF920F931F93CF93DF9385
:1024E000EC01E12CF12C0AE010E02FE730E040E0B5
:1024F00050E060E070E08EEC94E02BD6EEECF4E07F
:1025000081E0848B83E090E0958784871786168628
:10251000CE01BFDF8BED92E0ABDFDF91CF911F915A
:102520000F91FF90EF9074CEA3CF8F929F92AF92B6
:10253000BF920F931F93CF93DF93CDB7DEB7A197D1
:102540000FB6F894DEBF0FBECDBF19A2423008F41B
:102550004AE08E010F5D1F4F842E912CA12CB12CCF
:10256000A50194010E94933BE62FB901CA010150D5
:102570001109EA3014F4E05D01C0E95CD801EC9384
:10258000232B242B252B61F7C80172DFA1960FB6F0
:10259000F894DEBF0FBECDBFDF91CF911F910F9199
:1025A000BF90AF909F908F9008953F924F925F920F
:1025B0006F927F928F929F92AF92BF92CF92DF9253
:1025C000EF92FF920F931F93CF93DF93CDB7DEB7B8
:1025D00028970FB6F894DEBF0FBECDBF6C017E8387
:1025E0006D832A013901DC01ED91FC910284F385B0
:1025F000E02D1995C801079697FD0796FC0193E019
:10260000F595E7959A95E1F7FA83E983812C912C6A
:10261000A12CB12C312CC501840D951D9C838B837D
:10262000AE14BF040CF03FC018861F82EF81F885FE
:10263000E017F10784F58F81988587709927892B9A
:1026400011F0330C0EC0EF81F885F7FD379683E06B
:10265000F595E7958A95E1F7E80DF91DE60DF71D6B
:10266000349037FE12C0D601ED91FC910484F585BB
:10267000E02D21E030E04B815C816D817E818F8196
:102680009885680F791FC6011995AF81B885119695
:10269000B887AF83CBCFFFEFAF1ABF0A29813A814A
:1026A000820E931EB8CFD601ED91FC910688F78972
:1026B000E02DC60128960FB6F894DEBF0FBECDBF41
:1026C000DF91CF911F910F91FF90EF90DF90CF900E
:1026D000BF90AF909F908F907F906F905F904F9042
:1026E0003F901994EF92FF920F931F93CF93DF9334
:1026F000CDB7DEB728970FB6F894DEBF0FBECDBFBB
:10270000F82EE62E8E010F5F1F4F86E0F801119222
:102710008A95E9F784EE8983FB826C832D83842F6D
:1027200080618A8366E0C80128874F8387DB66E083
:10273000C80195DB182F6E2D8F2DBBDB682F70E045
:1027400099E0899FF0011124E059FC4FDF01A45565
:10275000BF4F9C919C7F4F81492B4C9311962885AC
:10276000822F8F778C93E255FF4F908127FF02C015
:10277000906201C09F7D908389E0869FF001879FD2
:10278000F00D1124EE5DFB4F90819F3F11F09F5F94
:102790009083812F28960FB6F894DEBF0FBECDBF71
:1027A000DF91CF911F910F91FF90EF9008950F93BC
:1027B0001F93CF93DF9380916A0390916B03DC01A9
:1027C000ED91FC910190F081E02D1995892B09F490
:1027D0006FC080916D0390916E03019621F4109269
:1027E0006E0310926D0380916A0390916B03DC017C
:1027F000ED91FC9160916D0370916E030088F189F9
:10280000E02D1995EC01E881F98119958A819B8168
:10281000DC01ED91FC910190F081E02D1995892B5F
:1028200079F100E010E08A819B81DC01ED91FC915F
:102830000190F081E02D1995081719070CF58A8190
:102840009B81DC01ED91FC910088F189E02DB801BC
:102850001995DC01ED91FC911995882371F08A811D
:102860009B81DC01ED91FC910088F189E02DB8019C
:102870001995FC018281938105C00F5F1F4FD3CF53
:102880008C819D8120916F03211110C021E0409126
:102890006D0350916E034817590709F420E0209307
:1028A0006C0390936E0380936D0302C010926F03CC
:1028B000DF91CF911F910F9108958F77982F20E08E
:1028C00031E0992329F023274FEF490F9423F9CFC3
:1028D0002111806808952091D4043091D504C90154
:1028E000079697FD079623E0959587952A95E1F73A
:1028F0002091D2043091D304829FA001839F500D78
:10290000929F500D112460E070E08091EC04909152
:10291000ED040C94FB3CCF92DF92EF92FF920F9369
:102920001F93CF93DF936C017A018B01C0E0D0E05D
:10293000CE15DF0589F0D8016D918D01D601ED919D
:10294000FC910190F081E02DC6011995892B11F4BD
:102950007E0102C02196ECCFC701DF91CF911F917C
:102960000F91FF90EF90DF90CF9008950895FC01B4
:102970006370658B8481958126813781613039F060
:10298000633029F0918780873387228708953187C4
:1029900020879387828708952F923F924F925F926C
:1029A0006F927F928F929F92AF92BF92CF92DF925F
:1029B000EF92FF920F931F93CF93DF93CDB7DEB7C4
:1029C0006C970FB6F894DEBF0FBECDBF9C8F8B8F78
:1029D0005B011A011F830E833701C982DC015896FF
:1029E0004D915C9159974115510509F0E5C0189634
:1029F0008D919C911997681779070CF0CAC11A96A6
:102A00008D919C911B97281639060CF0C2C18C2C15
:102A1000912CFB0136E0C39EE00DF11D1124FB87D4
:102A2000EA871E161F060CF0B4C1C40133E0880FFC
:102A3000991F3A95E1F79D878C87820D931D181693
:102A400019060CF0A6C157968C91811103C0203B4A
:102A500008F02F5FAB8DBC8DED91FC911197028436
:102A6000F385E02DCD012A8F19952A8DB5E02B9F96
:102A700090011124F5013596FF87EE87BB82AA826B
:102A80002501A9014A195B09598B488BC101089698
:102A90009B8B8A8BE889F989E40DF51DE752F84F85
:102AA0009491988761013D822C82A885A0FF13C074
:102AB000AB8DBC8DED91FC91B981B13031F40484C2
:102AC000F585E02D2E813F8116C00684F785E02D27
:102AD000EE80FF801AC0EE81FF816E167F06F1F056
:102AE000AB8DBC8DED91FC91B981B13051F4048472
:102AF000F585E02D9301A601B2018B8D9C8D199572
:102B00000DC00684F785E02D7301840194014C818A
:102B10005D816A817B818B8D9C8D1995E885E69519
:102B2000E887FFEFCF1ADF0A2C813D81280D391D80
:102B30003D832C834A895B89C416D50609F0B5CF3D
:102B40005FEF451A550A8A819B81880D991D9B83E9
:102B50008A83AE85BF854A165B0609F09BCFEE815E
:102B6000FF816E167F0609F4F2C0EB8DFC8DA0810B
:102B7000B181F981F13079F4B5016B5F7F4F5096E7
:102B8000ED91FC915197830128E030E0A1018B8DFC
:102B90009C8D1995DCC06A857B85681979091E961C
:102BA000ED91FC911F9773010C851D859401A10186
:102BB0008B8D9C8D1995CBC0FA01349694913297E8
:102BC00065917491291BCB01B7E02B9F800D911D5E
:102BD0001124FA01259134913B8B2A8BFC014591FC
:102BE00054915B834A83FC013296C4903196549190
:102BF0005E87329614913196D4908981823058F054
:102C0000612E012E000C7708AD2D0D2C000CBB0B96
:102C1000B987A88704C019861886612C712CAB8DE2
:102C2000BC8DED91FC9111970284F385E02DCD01CF
:102C30001995B9818B2E912C689CC001699C900DCF
:102C4000789C900D1124FC01EA0DFB1DFD87EC879B
:102C50001C82712C612CE12F110FFF0B95012E0F9F
:102C60003F1F3B872A87AC0CB11CA5014E0F5F1F8D
:102C70005F8B4E8BC1018D0D911DD7FC9A95998F5D
:102C8000888F4E85641608F062C0862D90E04885D6
:102C90005985480F591F489D9001499D300D589DF9
:102CA000300D1124D901A20DB31DB98BA88BAA84B4
:102CB000BB844C845D84DC80BA85DB1AE88DF98D99
:102CC000E80FF91FFD8BEC8B8D2D8A0D2E893F8926
:102CD000A216B306B9F1877061F48A819B810196CF
:102CE000EA89FB89AA81BB81EA0FFB1F74909B8351
:102CF0008A8377FE20C0AB8DBC8DED91FC91B981AC
:102D0000B13061F40484F585E02D2E813F814C893A
:102D10005D89B5018B8D9C8D19950DC00684F78555
:102D2000E02DEE80FF808401940148895989B20129
:102D30008B8D9C8D1995770CEFEFAE1ABE0A480C5F
:102D4000591CC2CF3C813C0D3C8363949ACFAB8D20
:102D5000BC8DED91FC9111970688F789E02DCD018E
:102D60006C960FB6F894DEBF0FBECDBFDF91CF914A
:102D70001F910F91FF90EF90DF90CF90BF90AF9099
:102D80009F908F907F906F905F904F903F902F908B
:102D900019946C960FB6F894DEBF0FBECDBFDF91CD
:102DA000CF911F910F91FF90EF90DF90CF90BF9048
:102DB000AF909F908F907F906F905F904F903F90DB
:102DC0002F900895AF92BF92CF92EF92FF920F9300
:102DD0001F93CF93DF93EC01262F888D998D009759
:102DE00009F03FC06A3059F41D861C862C898E85F7
:102DF0009F8538E0239F800D911D112440C06D30C8
:102E000009F4A8C08E898823C1F03C898C859D85F2
:102E100046E0349F800D911D11244885598548173F
:102E200059075CF41D861C868E859F8548E0349F7B
:102E3000800D911D11249F878E87EA88FB88088961
:102E400019894E855F856C857D85CC88CE01A4DD92
:102E50002C898C859D8536E0239F800D911D112442
:102E600042C06A3079F41D861C862C89FC01369696
:102E7000E4918E859F852E9F800D911D11249F8743
:102E80008E8768C06D3009F465C0FC0134963491BA
:102E9000631708F45FC03196E491E61708F45AC04E
:102EA000FC013296A590B490462F50E0431B510987
:102EB00037E0349FB001359F700D1124A60EB71E68
:102EC000F501329634913196E491332311F0E111FA
:102ED0000DC0F5013496E4912C898C859D85E29F87
:102EE000800D911D11249D878C8734C0F501359686
:102EF00044915E89552311F16C89E32FF0E0E40FD2
:102F0000F11D47FDFA956E9FD0016F9FB00D112402
:102F10004C855D854A0F5B1FE885F985E417F50749
:102F20006CF41D861C86FC013696E4918E859F8587
:102F30006E9F800D911D11249F878E87EA88FB88E4
:102F4000088919894E855F856C857D85CC88CE0181
:102F500023DDBFCF81E090E0DF91CF911F910F91F2
:102F6000FF90EF90CF90BF90AF9008956F927F92B7
:102F70008F929F92AF92BF92CF92DF92EF92FF9289
:102F80000F931F93CF93DF93EC014B015A0169011B
:102F90003801E881F9810284F385E02D1995E881F3
:102FA000F9810288F389E02D87019601A501B4011A
:102FB000CE011995E881F981A501460D571D4150B3
:102FC00051090288F389E02D9601B401CE011995CB
:102FD000E881F9810088F189E02D9301A501B40110
:102FE000CE011995E881F981C80CD91CB601615050
:102FF00071090088F189E02D9301A501CE01199591
:10300000E881F9810688F789E02DCE01DF91CF9123
:103010001F910F91FF90EF90DF90CF90BF90AF90F6
:103020009F908F907F906F901994CF92DF92EF9244
:10303000FF920F931F93CF93DF9300D000D0CDB7B3
:10304000DEB76C01DC01ED91FC916217730789F426
:10305000041715072CF4942F852FA801092F182F7A
:10306000041B150B98012F5F3F4F048CF58DE02D4D
:1030700012C04017510709F5261737072CF4962F71
:10308000872FB901292F382F261B370B2F5F3F4F72
:10309000068CF78DE02D8701C601199526960FB68F
:1030A000F894DEBF0FBECDBFDF91CF911F910F917E
:1030B000FF90EF90DF90CF9008950284F385E02D8C
:1030C0002D833E834B835C8369837A831995D60174
:1030D000ED91FC910488F589E02D2D813E814B8195
:1030E0005C8169817A81C6011995D601ED91FC91C7
:1030F0000688F789E02DC60126960FB6F894DEBF44
:103100000FBECDBFDF91CF911F910F91FF90EF9038
:10311000DF90CF901994EF92FF920F931F93DC01F1
:10312000ED91FC9111971A960D911C911B97189691
:103130002D913C91199700A0F1A1E02D7B0140E079
:1031400050E060E070E019951F910F91FF90EF90B3
:1031500008954F925F926F927F928F929F92AF925B
:10316000BF92CF92DF92EF92FF920F931F93CF9374
:10317000DF931F921F92CDB7DEB76C015A01390160
:103180004801DC01ED91FC910284F385E02D698317
:103190007A8319956981462E7A81572E640C751CA5
:1031A000D601ED91FC91461457046CF40088F18926
:1031B000E02D87019401A501B201C6011995BFEF69
:1031C0004B1A5B0AEDCF0688F789E02DC6010F90F8
:1031D0000F90DF91CF911F910F91FF90EF90DF90B3
:1031E000CF90BF90AF909F908F907F906F905F90A7
:1031F0004F901994AF92BF92CF92DF92EF92FF92CD
:103200000F931F93CF93DF9300D01F92CDB7DEB7FC
:103210005C016901DC01ED91FC910284F385E02DF4
:103220004B835C8369837A831995D501ED91FC9179
:1032300069817A819B012C0D3D1D21503109048843
:10324000F589E02D78014B815C818A01C5011995D2
:10325000D501ED91FC910688F789E02DC5010F900D
:103260000F900F900F90DF91CF911F910F91FF90D2
:10327000EF90DF90CF90BF90AF901994AF92BF9234
:10328000CF92DF92EF92FF920F931F93CF93DF9332
:1032900000D01F92CDB7DEB75C016901DC01ED9172
:1032A000FC910284F385E02D4B835C8369837A83F0
:1032B0001995D501ED91FC914B815C81C40ED51E11
:1032C000B1E0CB1AD1080488F589E02D7801860198
:1032D00069817A819B01C5011995D501ED91FC9118
:1032E0000688F789E02DC5010F900F900F900F9081
:1032F000DF91CF911F910F91FF90EF90DF90CF90D2
:10330000BF90AF9019940895EF92FF920F931F937F
:10331000DC01ED91FC9100A0F1A1E02D19951F9128
:103320000F91FF90EF9008950F931F93DC01ED91A3
:10333000FC91068CF78DE02D19951F910F91089542
:103340000F931F93DC01ED91FC91048CF58DE02D22
:1033500019951F910F910895DC01ED91FC91008466
:10336000F185E02D199408952F923F924F925F922C
:103370006F927F928F929F92AF92BF92CF92DF9285
:10338000EF92FF920F931F93CF93DF9300D0CDB7AF
:10339000DEB74C017B836A836A01590117019801EA
:1033A000241B350B37FF03C0319521953109C50129
:1033B0004A815B81841B950B97FF03C09195819592
:1033C000910951E059838217930714F019820BC0B9
:1033D0009A2D8B2D5801092F182F9A818B81DB8212
:1033E000CA82C92ED82E8A819B81A816B9065CF4A0
:1033F0009C2D8D2D6801092F182F9A818B81BB82FE
:10340000AA82A92EB82E2501AA81BB814A1A5B0A7D
:1034100038016C187D0877FE03C0719461947108BF
:10342000720157FE03C0BFEFEB1AFB0AF594E79455
:10343000C016D1061CF00FEF1FEF1FC001E010E017
:103440001CC0D401ED91FC91B9810484F585E02D77
:103450009101BB23C1F04A815B81B601C40119957A
:10346000E618F708F7FE04C0C00ED11EE40CF51CE8
:10347000EA81FB813196FB83EA834A815B81A41652
:10348000B506FCF604C0A6016A817B81E7CF0F90E8
:103490000F900F90DF91CF911F910F91FF90EF90C0
:1034A000DF90CF90BF90AF909F908F907F906F9064
:1034B0005F904F903F902F9008950E94EA3C1F9399
:1034C000CF93DF93EC01162F8C8D9D8D892B39F0D6
:1034D0006CA97DA98EA99FA90E94EC230EC08A8D9C
:1034E0009B8D892B19F08DAD9EAD84D7EEA5FFA5E0
:1034F00090818BA9809589238083111102C066EA8F
:1035000001C067EACE01D6D78C8D9D8D892B49F0FD
:1035100068AD79AD8AAD9BADDF91CF911F910C94D1
:10352000EC23EEA5FFA590818BA9892B80838A8D42
:103530009B8D892B21F0DF91CF911F9153C7DF9194
:10354000CF911F9108950F931F93CF93DF9377FF30
:1035500004C0260F371F60E070E0DC011496CD91A7
:10356000DC911597FB01E20FF31FCE17DF071CF468
:103570009E01261B370B121613060CF046C0FA01EB
:1035800057FD3796DF01E3E0B595A795EA95E1F79A
:10359000AC9FF001AD9FF00DBC9FF00D11246E0F9C
:1035A0007F1FDC015E96ED91FC915F97E60FF71FA0
:1035B0004770552781E090E001C0880F4A95EAF7EF
:1035C000482F0130110539F078F002301105E9F487
:1035D0002E0F3F1F13C02E0F3F1FE217F307A9F056
:1035E0008081842B8193F9CF80952E0F3F1FE217A6
:1035F000F30759F0908198239193F9CFE217F307DD
:1036000021F0808184278193F9CFDF91CF911F91A1
:103610000F910895EF92FF920F931F93CF93DF9333
:10362000EC0177FDA4C0EC80FD806E157F050CF0E9
:103630009EC057FF04C0240F351F40E050E08E812C
:103640009F81FA01E20FF31F8E179F071CF49C0164
:10365000241B350B121613060CF089C0922F842FF1
:103660008695869586958E9DD0018F9DB00D1124EF
:103670006A0F7B1FAE8DBF8DA60FB71F4770A9F1D4
:1036800088E0841B482F682F70E0FB01EF52F84F51
:10369000E491281790F4621B71092FEF30E002C00B
:1036A000359527956A95E2F7E2230130110541F03F
:1036B00070F00230110579F05AC00130110519F48B
:1036C0008C91E82B0AC00130110508F049C0E09543
:1036D0008C91E82302C08C91E827EC932C813D81EA
:1036E000941708F444C0A20FB31FE92FE41BE8307D
:1036F000F8F00230110561F48E2F9C9190959C9307
:103700002C813D81A20FB31F88508830B0F70FC0C5
:1037100081E00115110509F480E081959E2F8C93BD
:103720002C813D81A20FB31F98509830C0F7E770ED
:10373000EE23E9F0F0E0E753F84FE4910130110592
:1037400039F048F00230110591F48C91E82706C059
:103750008C91E82B03C0E0958C91E823EC9307C093
:103760000230110509F4B7CFAE0DBF1DBECFDF91FA
:10377000CF911F910F91FF90EF900895FC018281EE
:1037800093810895FC0182819381089580930002C2
:10379000089580914903882341F080914A038E3037
:1037A00021F41092490381E0089580E0089580910A
:1037B0004903882341F080914A038D3021F410920F
:1037C000490381E0089580E008958091000281110D
:1037D00008C080910302882321F01092030281E047
:1037E000089580E0089580910002823041F4909124
:1037F0000302923021F08093030281E0089580E07B
:10380000089580910002803241F490910302903239
:1038100021F08093030281E0089580E00895809173
:103820000002843041F490910302943021F080939F
:10383000030281E0089580E00895809100028130C4
:1038400039F490910302913019F0809303020895A6
:1038500080E008950F931F93CF93DF93EC018B01CA
:1038600084E090E00E94BD3BFC0113821282118330
:1038700000832C813D81232B29F0EE81FF819383EE
:10388000828302C09D838C839F838E838A819B81E8
:1038900001969B838A831C8681E0DF91CF911F91E3
:1038A0000F9108950F931F93CF93DF93EC018B013A
:1038B00084E090E00E94BD3BFC01138212821183E0
:1038C00000832C813D81232B29F0EE81FF8193839E
:1038D000828302C09D838C839F838E838A819B8198
:1038E00001969B838A831C8681E0DF91CF911F9193
:1038F0000F9108950E945927009721F0FC018081C3
:103900009181089580E090E00895AF92BF92CF92A8
:10391000DF92EF920F93CF93DF93CDB7DEB770E0D6
:10392000782B80911B0590911C058617970711F540
:1039300000931D05E0921F05D12CC4FA442740F9DD
:1039400050E0CC0CDD1C8EE1C822DD24C42AD52A2F
:1039500080E2A89E50011124CA28DB28D0922105BC
:10396000C0922005223021F0243011F0211144C0F2
:1039700020931E0547E050E061E373E08BE195E0A2
:103980000E94EE3C892B21F480911A058823A1F135
:1039900081E08093190587E0EBE1F5E0A1E3B3E076
:1039A00001900D928A95E1F780911A05882321F103
:1039B00080911E05823039F0843011F081110AC0E7
:1039C0000093180507C0E02FF0E0EC57FD4F808111
:1039D0008093180580911F05813021F480E8809341
:1039E000170502C0109217058091200590912105BE
:1039F0009093160580931505DF91CF910F91EF906D
:103A0000DF90CF90BF90AF9008950F931F930E94C7
:103A1000932C00914403109145032091460330916B
:103A20004703DC01CB01801B910BA20BB30B8B3F37
:103A30009105A105B10598F00E94932C6093440371
:103A400070934503809346039093470360911B0551
:103A500080911C050E94071081E080931A0580E088
:103A60001F910F910895EF92FF920F931F930E9461
:103A7000932C009138031091390320913A0330912F
:103A80003B03DC01CB01801B910BA20BB30B893EE6
:103A90009340A105B10530F10E94932C6093380347
:103AA0007093390380933A0390933B03E12CF12CFC
:103AB0000CE110E02CE130E04CE050E066E470E016
:103AC0008EEC94E046DB8CE1E82EF12C29EE3CE014
:103AD0004CE050E066E470E08EEC94E00E94D51279
:103AE0000E94081180E01F910F91FF90EF900895C0
:103AF000EF92FF920F931F930E94932C00913C032F
:103B000010913D0320913E0330913F03DC01CB0136
:103B1000801B910BA20BB30B8D3D9540A105B10508
:103B2000C8F00E94932C60933C0370933D038093F4
:103B30003E0390933F03E12CF12C08E010E02EE1CE
:103B400030E040E050E069E170E08EEC94E001DBB1
:103B50000E94081180E01F910F91FF90EF9008954F
:103B60000F931F930E94932C009111051091120541
:103B70002091130530911405DC01CB01801B910BC2
:103B8000A20BB30B81319742A105B10590F00E94C1
:103B9000932C6093110570931205809313059093F5
:103BA000140580911005882321F00E948A0C109240
:103BB000100580E01F910F910895CF93DF9300D0FF
:103BC000CDB7DEB780914903882361F180914A0324
:103BD0008C3041F580910002833018F4813030F050
:103BE0000EC0843061F0803281F01AC080910F05E0
:103BF000882359F080E889838A8362E00DC081E2DE
:103C0000898381E88A8380EA05C081E2898380E82C
:103C10008A8381EA8B8363E0CE0101960E942F0F95
:103C20001092490380E00F900F900F90DF91CF9199
:103C30000895EF92FF920F931F93CF93DF9380919C
:103C40006C03882309F49FC010922205109202028F
:103C500082EE9CE00E946A1210920E0510920D05F1
:103C6000E12CF12C08E310E020E830E048E050E0DF
:103C700060E070E08EEC94E06CDA81E08093E20426
:103C8000C5E0D0E0D093DB04C093DA0484E1E82EF1
:103C9000F12CF092DD04E092DC0482EE92E00E94CE
:103CA00094120CE310E01093DB040093DA04F0921A
:103CB000DD04E092DC046091020270E080E090E0BC
:103CC0004AE00E949512D093DB04C093DA04CEE15F
:103CD000D0E0D093DD04C093DC048CEE92E00E942F
:103CE00094121093DB040093DA04D093DD04C093A4
:103CF000DC0482E090E00E945727882351F0813055
:103D000019F480E093E007C060E082E090E00E9458
:103D1000552786EF92E00E94941285E090E0909300
:103D2000DB048093DA04C8E2D0E0D093DD04C093D2
:103D3000DC048AE093E00E9494128CE390E090937C
:103D4000DB048093DA04D093DD04C093DC0484E0C8
:103D500090E00E945727882351F0813019F489E1BF
:103D600093E007C060E084E090E00E94552784E182
:103D700093E00E949412DF91CF911F910F91FF90D9
:103D8000EF900C94081180914903882309F4E1C055
:103D900080914A038C3009F471C018F48A3058F0CD
:103DA000D8C0883109F445C008F4D3C080528230AD
:103DB00008F4A3C0CEC0909102022AE0929F800D29
:103DC0001124803218F48093020202C01092020281
:103DD000E12CF12C0AE010E023E330E044E150E074
:103DE0006CE370E08EEC94E0B4D98CE390E09093B7
:103DF000DB048093DA0484E190E09093DD04809307
:103E0000DC046091020270E080E090E04AE00E94F1
:103E100095120E94081160910202662339F086E033
:103E200090E00E94552781E080932205109249037B
:103E300090C080912205882379F089ED9CE00E9452
:103E40006A1298E088E10FB6F894A8958093600014
:103E50000FBE909360007DC010924903E091600313
:103E6000F09161038481958190936E0380936D033B
:103E700081E080936C0380936F036BC0E12CF12C85
:103E80000AE010E02CE330E04EE150E06CE370E03B
:103E90008EEC94E05ED98CE390E09093DB04809309
:103EA000DA048EE190E09093DD048093DC0482E0FC
:103EB00090E0FDD7882341F0813079F486EF92E0DD
:103EC0000E94941260E005C080E093E00E9494128A
:103ED00061E082E090E0E9D708C060E082E090E035
:103EE000E4D786EF92E00E9494120E94081110928B
:103EF000490381E0809322052CC0E12CF12C0AE0DB
:103F000010E023E330E048E250E06CE370E08EEC38
:103F100094E01FD98CE390E09093DB048093DA0463
:103F200088E290E09093DD048093DC0484E090E0EC
:103F3000BED7811107C061E084E090E0B6D789E187
:103F400093E0D1CF60E084E090E0AFD784E193E0EC
:103F5000CACFDF91CF911F910F91FF90EF900895FD
:103F6000DC011496ED91FC9115971C968C911C9791
:103F7000882361F01A962D913C911B976217730765
:103F80002CF01896ED91FC9119970AC020E030E0D2
:103F900007C03097C9F00280F381E02D2F5F3F4FBB
:103FA00026173707B4F32617370771F481E01C96FC
:103FB0008C931C971B963C932E931A971996FC93FF
:103FC000EE931897CF01089580E090E00895C8DF40
:103FD000009721F0FC0180819181089580E090E0BC
:103FE0000895FC0177FDB9C0808591856817790730
:103FF0000CF0B3C057FDB1C08285938548175907AF
:104000000CF008958589823079F484819581DC01F2
:10401000A61BB70BBD016150710986819781DC0138
:10402000A41BB50BAD010EC0833009F084C064271A
:104030007527CB01842795276827792746815781E3
:10404000481B590B415051092130310531F048F1DD
:104050002230310509F44AC00895CA0157FD079678
:104060009C01A3E035952795AA95E1F7A481B58138
:104070002A9FC0012B9F900D3A9F900D1124680F2D
:10408000791F068CF78DE02DE60FF71F4770552737
:1040900081E090E001C0880F4A95EAF79081892B72
:1040A00048C0CA0157FD07969C0193E035952795B6
:1040B0009A95E1F7A481B5812A9FC0012B9F900DAD
:1040C0003A9F900D1124680F791F068CF78DE02D13
:1040D000E60FF71F4770552781E090E001C0880F79
:1040E0004A95EAF780959081892323C0CA0157FD3C
:1040F00007969C0183E0359527958A95E1F7A48181
:10410000B5812A9FC0012B9F900D3A9F900D1124DD
:10411000680F791F068CF78DE02DE60FF71F4770AB
:10412000552781E090E001C0880F4A95EAF7908119
:10413000892780830895813009F086CF6427752709
:10414000462757276427752784819581DC01A61BA4
:10415000B70BBD016150710977CF0895089581E0D3
:1041600090E03091300320912F03321710F480E05B
:1041700090E09195819591090895809130039091F7
:104180002F03891730F48F5F8093300380E090E035
:1041900008958FEF9FEF089580912F0390E0209175
:1041A0003003821B91090895089580E090E00895FE
:1041B00085ED8093BC008091BC0084FDFCCF109203
:1041C0002E03089540914505262F30E0240F311D20
:1041D00021323105DCF420912E032430C9F4FC0196
:1041E00080E090E0861758F4309145052191DC017C
:1041F000AD5DBA4FA30FB11D2C930196F3CF809103
:104200004505680F6093450580E0089581E00895B5
:1042100082E00895CF92DF92EF92FF920F931F9367
:10422000CF93DF937C01262F972F8A01809155032E
:10423000882391F0C62FD72F6E01C40ED51ECC1542
:10424000DD0569F06991D701ED91FC910190F08154
:10425000E02DC7011995F3CF642F822FB3DFC8017A
:10426000DF91CF911F910F91FF90EF90DF90CF9052
:104270000895CF93DF931F92CDB7DEB76983209166
:1042800055032223D1F020915203203240F021E047
:1042900030E0FC013383228380E090E014C0809101
:1042A0005303E82FF0E0E257FA4F998190838F5F34
:1042B000809353038093520304C061E0CE010196C2
:1042C00081DF81E090E00F90DF91CF9108950F930F
:1042D0001F93CF93DF93DC015596EC915597E23015
:1042E00071F0E330E9F0E13071F5FB0114960D90C7
:1042F000BC91A02DA41BB50BA21BB30B18C0EC01E5
:10430000EC81FD81E61BF70BBF0161507109EE8165
:10431000FF81DF01A41BB50BAD01421B530B13C082
:10432000DA01EC01EE81FF81E61BF70B3197F7FD17
:104330000BC0EC014E815F81E417F5072CF4AF014F
:10434000BD0101D901C066D9DF91CF911F910F91B5
:1043500008950F931F93DC015596EC915597E23029
:1043600061F0E33009F1E13079F51496ED91FC91BB
:104370001597E41BF50B319723C0DC011496ED91E2
:10438000FC911597DF01A61BB70BBD01DC0116964A
:10439000ED91FC911797DF01A41BB50BAD014150C6
:1043A0005109621B730B10C0FA01DC0116964D9186
:1043B0005C911797DA01A61BB70BBD01621B730B4B
:1043C000AB01BF0127D90BC057FD09C0DC01169610
:1043D000ED91FC9117974E175F070CF4B4D81F911D
:1043E0000F91089508958EBD00000DB407FEFDCF16
:1043F0008EB508958CBD9DBD089520915203909176
:104400005403213208F04AC080912E038111FCCF61
:1044100032E030932E0331E030932D033FEF3093A1
:104420008D0510928C0520938B05AEE8B5E04BE628
:1044300055E0FA013E2F341B321718F43D913193A9
:10444000F9CF10926A0520916A05990F922B9093EB
:104450006A0590912C03913061F410922C03909195
:104460006A059093BB009091BC0093FDF8CF95EC4A
:1044700001C095EE9093BC0090912E039230E1F331
:1044800090918D059F3F79F080918D05803241F0AC
:1044900080918D05803331F084E005C081E003C058
:1044A00082E001C083E010925303109252031092F5
:1044B000550308951F93CF93DF93FC01848D958D51
:1044C000009721F1162FEF0120A131E03093550321
:1044D000209354031092530310925203DC01ED9188
:1044E000FC910190F081E02D60E019958C8D9D8DFF
:1044F000DC01ED91FC910190F081E02D612F199587
:104500008C8D9D8DDF91CF911F9177CFA4A5B5A5FF
:104510009C9182A9809589238C93828D938D892B80
:1045200029F0862FDF91CF911F915DCF28E030E0F9
:1045300080E8A0A5B1A590A9482F462319F04C9179
:10454000942B03C04C91909594239C93A2A5B3A562
:104550004C9191A9942B9C93A2A5B3A54C9191A9A0
:10456000909594239C9386952150310911F7DF9102
:10457000CF911F9108951F920F920FB60F921124A1
:104580000BB60F922F933F934F935F936F937F934D
:104590008F939F93AF93BF93EF93FF938091B90055
:1045A000887F803609F49CC068F5883209F45BC0C6
:1045B00090F4803109F454C038F4882309F4F6C02B
:1045C000883009F44DC0F5C0883109F44CC0803200
:1045D00009F45DC0EEC0803409F468C048F480334B
:1045E00009F455C0883309F0E4C080938D05D8C024
:1045F000803509F44FC0883509F45DC0883409F06E
:10460000D8C0D6C0883909F4C7C0A8F4883709F4DF
:1046100067C038F4883609F463C0803709F460C095
:10462000C8C0883809F4B8C0803909F45FC0803840
:1046300009F0BFC05BC0803B09F486C038F4803A03
:1046400009F466C0883A09F47FC0B3C0803C09F41D
:10465000A7C0883C09F4A4C0883B09F48AC0A9C05B
:1046600080916A0510C090918C0580918B059817F8
:1046700070F5E0918C0581E08E0F80938C05F0E061
:10468000E559FA4F80818093BB0085EC86C080930A
:104690008D058EC0E0918C0581E08E0F80938C0596
:1046A0008091BB00F0E0E559FA4F808390918C0532
:1046B00080918B056EC0E0918C0581E08E0F809318
:1046C0008C058091BB00F0E0E559FA4F8083809122
:1046D0002D0381116DC081E080932C0384EA61C0B9
:1046E00083E080932E0310926905CFCF80916905F6
:1046F000803208F051C0E091690581E08E0F80930F
:1047000069058091BB00F0E0E75BFA4F8083BDCF85
:1047100085EC8093BC0010922E0380916905803255
:1047200030F4E0916905F0E0E75BFA4F10826091A8
:10473000690570E0E0914705F091480589E495E04E
:1047400019951092690535C084E080932E0310926C
:10475000460510924505E0914305F09144051995F1
:1047600080914505811105C081E080934505109237
:104770002305E091460581E08E0F80934605F0E029
:10478000ED5DFA4F80818093BB009091460580914A
:104790004505981708F479CF85E88093BC0009C0D7
:1047A00085EC8093BC0010922E0303C010928D05FF
:1047B000FFDCFF91EF91BF91AF919F918F917F911E
:1047C0006F915F914F913F912F910F900BBE0F9082
:1047D0000FBE0F901F9018959B01AC0160E074E232
:1047E00084EF90E00E94933BDA01C9014097A10950
:1047F000B109B695A795979587958093B8000895C8
:10480000CF93DF93EC01E881F9810190F081E02DF5
:10481000CE0119951816190644F4E881F981068429
:10482000F785E02DCE011995EECFDF91CF91089558
:10483000CF93DF93EC01E881F9810190F081E02DC5
:10484000CE0119951816190644F4E881F9810684F9
:10485000F785E02DCE011995EECFDF91CF91089528
:10486000EF92FF920F931F93CF93DF931F92CDB7D9
:10487000DEB77C018B0161E0FC018281498342D774
:10488000F801498150E0CF01801B910B84179507F7
:1048900040F481919091C80095FFFCCF8093CE00A9
:1048A000F2CF8091C80086FFFCCF80E48093C800DF
:1048B0001092C80060E0F70182810F90DF91CF91E4
:1048C0001F910F91FF90EF901DC7EF92FF920F93F2
:1048D0001F93CF93DF93DC0112962D913C91139798
:1048E0001216130624F521303105A1F0EC01EC81FC
:1048F000FD81E280F38000811181CF010E94523C52
:10490000FD82EC828A819B8101979B838A831C862E
:10491000C8010FC0DC01ED91FC910484F585E02D08
:10492000DF91CF911F910F91FF90EF90199480E04C
:1049300090E0DF91CF911F910F91FF90EF9008953C
:10494000EF92FF920F931F93CF93DF93DC011296A8
:104950002D913C9113971216130624F52130310541
:10496000A1F0EC01EC81FD81E280F38000811181F6
:10497000CF010E94523CFD82EC828A819B8101978B
:104980009B838A831C86C8010FC0DC01ED91FC91DA
:104990000484F585E02DDF91CF911F910F91FF9059
:1049A000EF90199480E090E0DF91CF911F910F91EB
:1049B000FF90EF900895EF92FF920F931F93CF9384
:1049C000DF93FC0162817381161617065CF5EC011A
:1049D000148661307105B9F062507109C1DA7C0149
:1049E000FC0182819381FC01008111810E94523C73
:1049F000F70113821282FF82EE828A819B810197E6
:104A00009B838A830DC084819581FC010081118183
:104A10000E94523C1D821C821F821E821B821A82AF
:104A2000C80102C080E090E0DF91CF911F910F910B
:104A3000FF90EF9008950F931F93CF93DF9377FD2F
:104A40003DC0DC0112962D913C91139762177307BC
:104A5000ACF56115710531F4ED91FC910684F78593
:104A6000E02D0BC0215031096217730759F4DC01A6
:104A7000ED91FC910484F585E02DDF91CF911F919C
:104A80000F911994EC01615071096ADADC011296F8
:104A9000ED91FC911397008111812281338113964E
:104AA0003C932E931297CF010E94523C8A819B81A6
:104AB00001979B838A831C86C80102C080E090E036
:104AC000DF91CF911F910F910895CF93DF9377FDE1
:104AD0000DC0FC0122813381621773073CF4EA01A7
:104AE0003FDAFC01D183C08381E001C080E0DF9127
:104AF000CF910895EF92FF920F931F93CF93DF937F
:104B0000DC0112960D911C9113970115110561F4AA
:104B1000ED91FC910480F581E02DDF91CF911F9103
:104B20000F91FF90EF9019947B01EC0184E090E0ED
:104B30000E94BD3B2C813D81FC0133832283F182A5
:104B4000E0829D838C830F5F1F4F1B830A831C862B
:104B500081E0DF91CF911F910F91FF90EF90089529
:104B6000CF92DF92EF92FF920F931F93CF93DF9339
:104B70009B01BA01DC0112964D915C9113972417A9
:104B8000350734F0ED91FC910480F581E02D09C0EA
:104B90002115310579F4DC01ED91FC910680F78156
:104BA000E02DDF91CF911F910F91FF90EF90DF905B
:104BB000CF9019947B01E9018C0184E090E00E9480
:104BC000BD3B6C01FC011182108213821282BE0176
:104BD00061507109C801C4D9D6011196FC92EE92B8
:104BE000FC012281338113963C932E931297D3823A
:104BF000C282D80112968D919C91139701961396BB
:104C00009C938E9312971C961C9281E0DF91CF911A
:104C10001F910F91FF90EF90DF90CF900895EF924A
:104C2000FF920F931F93CF93DF93DC0112960D91A8
:104C30001C9113970115110561F4ED91FC9104800D
:104C4000F581E02DDF91CF911F910F91FF90EF90B3
:104C500019947B01EC0184E090E00E94BD3B2C8123
:104C60003D81FC0133832283F182E0829D838C832A
:104C70000F5F1F4F1B830A831C8681E0DF91CF915A
:104C80001F910F91FF90EF9008951F920F920FB612
:104C90000F9211240BB60F92EF92FF920F931F9376
:104CA0002F933F934F935F936F937F938F939F9334
:104CB000AF93BF93EF93FF93CF93DF9300D0CDB724
:104CC000DEB70091AE051091AF050115110509F48D
:104CD000D0C09091C80097FF0FC02091C90080916B
:104CE000CE009C7149F421FB992790F9592F40E09F
:104CF0009A01282BC90102C08FEF9FEF8F3F3FEF32
:104D0000930709F4B6C0F801E05CFE4F10821182EF
:104D1000128213828F3F910509F008F48FC0F801C9
:104D2000118E278130858217930791F480E2898361
:104D30008A8342E0BE016F5F7F4FC80191DD80E052
:104D400090E0892B09F495C081EE0E94000091C08B
:104D5000F801258136818217930709F052C081E25C
:104D6000898384E28A8385E08B838081882329F08C
:104D7000E35CFE4F80818F3F39F443E0BE016F5FFB
:104D80007F4FC8016DDD75C0F801428D4423B1F13C
:104D9000838D882329F0B801655E7F4FC80160DDEF
:104DA000F801B396980126553F4F8081DF0119978E
:104DB0008C9380E090E07F014AE1E41AF108BF01A2
:104DC00063527109D701A80FB91F5B964C91DB01A3
:104DD000A80FB91F5B964C9301968830910591F707
:104DE0003996E217F30709F7F801EF55FF4F1082E4
:104DF00031961192E217F307E1F73BC0F801128EEA
:104E000038C08036F1E09F0731F0F801238134810A
:104E100082179307F1F4F80112861186148613861F
:104E200016861586108A1786128A118A148A138AA2
:104E3000168A158A108E178A21E00AC082359105DC
:104E400041F421E030E0F80134872387328721875D
:104E5000218FF801218D222361F0218532852F5F7A
:104E60003F4F32872187220F331FE20FF31F9287B4
:104E700081870F900F900F90DF91CF91FF91EF916D
:104E8000BF91AF919F918F917F916F915F914F9162
:104E90003F912F911F910F91FF90EF900F900BBEBC
:104EA0000F900FBE0F901F9018950C94853B0C949B
:104EB0007D3BDC011496ED91FC9115971C968C912D
:104EC0001C97882361F01A962D913C911B976217CD
:104ED00073072CF01896ED91FC9119970AC020E009
:104EE00030E007C03097C9F00280F381E02D2F5FDA
:104EF0003F4F26173707B4F32617370771F481E0C1
:104F00001C968C931C971B963C932E931A9719967C
:104F1000FC93EE931897CF01089580E090E00895F8
:104F2000EF92FF920F931F93CF93DF93FC01628167
:104F30007381161617065CF5EC0114866130710555
:104F4000B9F062507109B5DF7C01FC018281938167
:104F5000FC01008111810E94523CF70113821282F0
:104F6000FF82EE828A819B8101979B838A830DC099
:104F700084819581FC01008111810E94523C1D8237
:104F80001C821F821E821B821A82C80102C080E01E
:104F900090E0DF91CF911F910F91FF90EF900895D6
:104FA0000F931F93CF93DF9377FD3DC0DC011296E3
:104FB0002D913C91139762177307ACF5611571053C
:104FC00031F4ED91FC910684F785E02D0BC0215062
:104FD00031096217730759F4DC01ED91FC910484E7
:104FE000F585E02DDF91CF911F910F911994EC0180
:104FF000615071095EDFDC011296ED91FC9113970F
:10500000008111812281338113963C932E93129754
:10501000CF010E94523C8A819B8101979B838A83A6
:105020001C86C80102C080E090E0DF91CF911F9103
:105030000F910895CF93DF9377FD0DC0FC0122817E
:105040003381621773073CF4EA0133DFFC01D1833B
:10505000C08381E001C080E0DF91CF910895CF92BD
:10506000DF92EF92FF920F931F93CF93DF939B01F9
:10507000BA01DC0112964D915C9113972417350704
:1050800034F0ED91FC910480F581E02D09C02115EB
:10509000310579F4DC01ED91FC910680F781E02D7A
:1050A000DF91CF911F910F91FF90EF90DF90CF9004
:1050B00019947B01E9018C0184E090E00E94BD3BE2
:1050C0006C01FC011182108213821282BE016150B8
:1050D0007109C801EEDED6011196FC92EE92FC0138
:1050E0002281338113963C932E931297D382C282EE
:1050F000D80112968D919C911397019613969C93CB
:105100008E9312971C961C9281E0DF91CF911F9194
:105110000F91FF90EF90DF90CF9008958F929F9224
:10512000AF92BF92CF92DF92EF92FF920F931F93B5
:10513000CF93DF93CDB7DEB727970FB6F894DEBFD6
:105140000FBECDBFF82EE62E022F11E0413009F040
:1051500010E06E2D8F2D4F830E94590F4F81053027
:1051600008F088C0C82ED12C29E0829FF0011124BC
:10517000E25EFB4F9081892F8F714230C1F40111A3
:1051800006C094FB112710F921E0122712C0282F26
:1051900030E09FEF900F02C0359527959A95E2F782
:1051A0002170332741E02427122F117009C001110B
:1051B00007C0112319F0982F906119C09F7017C074
:1051C000202F30E02150310941E050E060E070E0F4
:1051D00004C0440F551F661F771F2A95D2F711236D
:1051E00019F0982F942B03C04095942F9823FE011B
:1051F00031965F0186E011928A95E9F784EE898302
:1052000080E28A83FB82EC829D8366E0C5010E9476
:105210001E0F66E0C5010E942F0F982E01110FC0CE
:1052200089E08C9DF0018D9DF00D1124E25EFB4F15
:105230008081112311F0806188C08F7E86C0202F6D
:1052400030E089E08C9DF0018D9DF00D1124E25E2F
:10525000FB4F2150310981E090E0A0E0B0E004C0B4
:10526000880F991FAA1FBB1F2A95D2F7112309F493
:105270008FC169C09BEF900F943008F068C0C82EB2
:10528000D12C29E0829FF0011124E15EFB4F2081A7
:105290002F70A02EB12C423081F4822F90E0A50116
:1052A0004550510902C0959587954A95E2F781705E
:1052B000992731E08327182F1170A5014550510916
:1052C00081E090E0A0E0B0E004C0880F991FAA1F21
:1052D000BB1F4A95D2F7112311F0282B02C08095ED
:1052E0002823AE014F5F5F4F4A0186E0FA01119219
:1052F0008A95E9F784EE898381E28A83FB82EC82D6
:105300002D8366E0C4010E941E0F66E0C4010E9466
:105310002F0F982E89E08C9DF0018D9DF00D1124AA
:10532000E15EFB4F112309F45FC0850105501109AF
:1053300081E090E0A0E0B0E004C0880F991FAA1FB0
:10534000BB1F0A95D2F72081822B808326C197EF5D
:10535000900F943008F04CC0C82ED12C29E0829FC9
:10536000F0011124E15EFB4F808190E024E09595EF
:1053700087952A95E1F7A02EB12C423081F4950152
:1053800029503109AC0102C0559547952A95E2F79D
:105390009A012170332751E02527122F11709501B2
:1053A0002950310941E050E060E070E004C0440F52
:1053B000551F661F771F2A95D2F7112319F0982FD2
:1053C000942B03C04095942F9823FE0131964F01F2
:1053D00086E011928A95E9F784EE898382E28A83D6
:1053E000FB82EC829D838DCF850105501109C5C0DC
:1053F00093EF900F983008F05EC0C82ED12C29E0B2
:10540000829FF0011124E05EFB4F2081A02EB12C81
:10541000423081F4822F90E0A5014D50510902C025
:10542000959587954A95E2F78170992731E0832712
:10543000182F1170A5014D50510981E090E0A0E0B6
:10544000B0E004C0880F991FAA1FBB1F4A95D2F76E
:10545000112319F0922F982B03C08095982F922337
:10546000AE014F5F5F4F4A0186E0FA0111928A95C3
:10547000E9F784EE898383EF8A83FB82EC829D8344
:1054800066E0CA010E941E0F66E0C4010E942F0F51
:10549000982E89E08C9DF0018D9DF00D1124E05E29
:1054A000FB4F112321F085010D50110941CF8501DA
:1054B0000D50110962C09BEE900F983008F06CC03F
:1054C000C82ED12C29E0829FF0011124EF5DFB4F03
:1054D0002081A02EB12C423081F4822F90E0A501D2
:1054E0004551510902C0959587954A95E2F781701B
:1054F000992731E08327182F1170A50145515109D3
:1055000081E090E0A0E0B0E004C0880F991FAA1FDE
:10551000BB1F4A95D2F7112319F0922F982B03C085
:105520008095982F9223AE014F5F5F4F4A0186E02E
:10553000FA0111928A95E9F784EE898388E28A83D9
:10554000FB82EC829D8366E0CA010E941E0F66E02A
:10555000C4010E942F0F982E89E08C9DF0018D9D33
:10556000F00D1124EF5DFB4F112321F08501055152
:105570001109DECE85010551110981E090E0A0E01E
:10558000B0E004C0880F991FAA1FBB1F0A95D2F76D
:10559000809590818923D9CE912C41E06E2D8F2D5D
:1055A0000E94B50F892D27960FB6F894DEBF0FBE67
:1055B000CDBFDF91CF911F910F91FF90EF90DF90C2
:1055C000CF90BF90AF909F908F9008950F931F93AF
:1055D000CF93DF9300D01F921F92CDB7DEB7182F65
:1055E000062FE62FF0E0F82B9F0123703327220FC0
:1055F000331F922F9960242F2970266092231982DD
:105600001A821B821C8282E5898390689B83F595B0
:10561000E795F595E795EA8364E0CE0101964D8321
:105620000E941E0F80E090E04D81892B31F0417087
:105630004F5F602F812F0E94000064E0CE01019631
:105640000E942F0F0F900F900F900F900F90DF91EF
:10565000CF911F910F91089590E0FC013197E231B5
:10566000F10508F04EC08827E053FF4F8F4F0C9490
:10567000B53B809180008F7703C0809180008F7D43
:1056800080938000089580918000877FF9CF84B552
:105690008F7702C084B58F7D84BD08958091B0005E
:1056A0008F7703C08091B0008F7D8093B000089504
:1056B000809190008F7707C0809190008F7D03C00C
:1056C00080919000877F8093900008958091A00042
:1056D0008F7707C08091A0008F7D03C08091A000CC
:1056E000877F8093A0000895809120018F7707C065
:1056F000809120018F7D03C080912001877F80935E
:10570000200108951F93CF93DF93282F30E0F901F4
:10571000E75EF14F8491F901ED52F24FD491F90116
:10572000E357F24FC491CC23C1F0162F811194DFBF
:10573000EC2FF0E0EE0FFF1FED58F24FA591B49162
:105740008FB7F894111105C09C91ED2FE095E923D6
:1057500002C0EC91ED2BEC938FBFDF91CF911F91A5
:105760000895CF93DF9390E0FC01ED52F24F249126
:10577000FC01E357F24F8491882361F190E0880F98
:10578000991FFC01E75AF24FC591D491FC01ED58E5
:10579000F24FA591B491611109C09FB7F894888127
:1057A000209582238883EC912E230BC0623061F414
:1057B0009FB7F8943881822F809583238883EC915A
:1057C0002E2B2C939FBF06C08FB7F894E8812E2B09
:1057D00028838FBFDF91CF9108953FB7F8948091D0
:1057E000B5059091B605A091B705B091B80526B55D
:1057F000A89B05C02F3F19F00196A11DB11D3FBF09
:10580000BA2FA92F982F8827820F911DA11DB11D96
:10581000BC01CD0142E0660F771F881F991F4A9592
:10582000D1F708959091B504E92FF0E0E454FD4FCD
:10583000208130E002C0359527958A95E2F72370E4
:10584000291317C081E08093B50481E090E0909324
:10585000BF048093BE049093C1048093C004BDDF55
:105860006093B6047093B7048093B8049093B9041E
:1058700008952093B504223039F48091C0049091AA
:10588000C104880F991F09C02130A1F48091C00480
:105890009091C104880F991F01969093C104809341
:1058A000C0048091BE049091BF0401969093BF0400
:1058B0008093BE0408958F929F92AF92BF92CF9231
:1058C000DF92EF92FF926B017C0187DF4B015C015D
:1058D000C114D104E104F104E9F07FDFDC01CB0164
:1058E00088199909AA09BB09883E9340A105B10509
:1058F00078F321E0C21AD108E108F10888EE880E99
:1059000083E0981EA11CB11CC114D104E104F10470
:1059100021F7DECFFF90EF90DF90CF90BF90AF9058
:105920009F908F9008952FB7F8946091B105709172
:10593000B2058091B3059091B4052FBF08951F92D1
:105940000F920FB60F9211242F933F938F939F9333
:10595000AF93BF938091B1059091B205A091B3052B
:10596000B091B4053091B00523E0230F2D3720F41A
:105970000196A11DB11D05C026E8230F0296A11DA9
:10598000B11D2093B0058093B1059093B205A0930B
:10599000B305B093B4058091B5059091B605A0917B
:1059A000B705B091B8050196A11DB11D8093B5054D
:1059B0009093B605A093B705B093B805BF91AF918A
:1059C0009F918F913F912F910F900FBE0F901F903D
:1059D0001895EF92FF920F931F93CF93DF938091CF
:1059E0006C03882309F450C08FE49FE00E946A1280
:1059F00010920E0510920D05E12CF12C08E010E03C
:105A00002CE130E040E050E06EE670E08EEC94E097
:105A10000E94A91808E310E020E830E048E050E0D8
:105A200060E070E08EEC94E00E94A91882E0809320
:105A3000E20481E090E09093DB048093DA04CEE00E
:105A4000D0E0D093DD04C093DC0482E293E00E94B6
:105A500094128BE490E09093DB048093DA04D0936B
:105A6000DD04C093DC0460910D0570910E0580E0AB
:105A700090E04AE00E949512DF91CF911F910F9123
:105A8000FF90EF900C94081180914903882309F44A
:105A9000D6C080914A03843169F130F48A3098F09D
:105AA0008D3009F454C0C9C0843309F484C020F493
:105AB000833309F468C0C1C0853309F492C08633CA
:105AC00009F4A5C0BAC040910D0550910E059AE0A9
:105AD000949F9001959F300D1124A901480F511DED
