:10000000AEC70000DDC70000DBC70000D9C7000095
:10001000D7C70000D5C70000D3C70000D1C7000074
:10002000CFC70000CDC70000CBC70000C9C7000084
:10003000C7C70000C5C70000C3C70000C1C7000094
:10004000BFC70000BDC70000BBC70000B9C70000A4
:10005000B7C70000B5C70000B3C700000C943A2F23
:10006000AFC70000ADC70000ABC70000A9C70000C4
:10007000A7C70000A5C70000A3C70000A1C70000D4
:100080009FC700009DC700009BC7000099C70000E4
:100090000C949E2595C7000093C700000C940E2277
:1000A0008FC700008DC700008BC7000089C7000004
:1000B00087C7000085C7000083C7000081C7000014
:1000C0007FC700007DC700007BC7000079C7000024
:1000D00077C7000075C7000073C7000071C7000034
:1000E0006FC700003D0A3D0A3D0A3D0A3D0A3D0A30
:1000F0003D0A3D0A3D0A3D0A960A960A960A960A64
:10010000960A960A89099309960A9D09BB09BF09AF
:10011000BF09BF09BF09960A960A960A960ACF092F
:10012000E509960AFB09090A960A960A960A960AAA
:10013000960A960A160A180A1B0A1D0A200A220A9B
:10014000250A270A960A960A960A2C0A300A340AC1
:10015000380A4A0B520B080C5A0B780B7C0B7C0BA1
:100160007C0B7C0B080C080C080C080C8C0BA30BEC
:10017000080C080C080C080C080C080C080C080CDF
:10018000080CBA0BBC0BBF0BC10BC40BC60BC90BC5
:10019000CB0B080C080C080CD00BD40BD80BDC0BC9
:1001A000E22DE52DD42DD82DDE2D1C2EE92DED2DA3
:1001B000F32DF72DFB2D012E052E092E1C2E0F2EB3
:1001C000132E172EDB40A4A62EAF2000A1C8D3000B
:1001D000408DAED580A80000600000000000000047
:1001E00000000000000000E000000000000000002F
:1001F000000000000001E00000000000000000001E
:100200000000000001F000000000000000000000FD
:1002100000000003F00000000000000000000000EB
:10022000000007F0000000000000000000000000D7
:100230000007F800000000000000000000000000BF
:100240000FF800000003C0007E000001E0007F0FF7
:10025000F800000003C000FE000001E000FFEFF81E
:1002600000000003C000FE000001E000FFFFF800F6
:10027000000003C000F00000000F007FFE7FC00000
:100280000003C000F00000000F003FFE7FF83FF1C8
:10029000FBCFFCFEF3BC3DEFE01FFE7FFF7FFBFFCB
:1002A000DFFEFEFFBC3DEFE01FC6FFFF7FFBFFDF71
:1002B000FEFEFFBC3DEFE00FE3C7FE787BC3DE1E12
:1002C000F0FFBC3DEF0007FF87FC787BC3DE1EF02C
:1002D000F83C3DEF0001FFFFF0007BC3C01EF0F0D3
:1002E0003C3DEF0001F37FE03FFBC3CFFEF0F03C6D
:1002F0003DEF0003E33F807FFBC3DFFEF0F03C3DBA
:10030000EF0007E73C00787BC3DE1EF0F03C3DEFDA
:100310000007FFBE00787BC3DE1EF0F03C3DEF001F
:1003200007FFFE00787BC3DE1EF0F03C3DEF000FC0
:10033000FFFE007FFBFFDFFEF0F03FFDEFE00FFF71
:10034000FF007FFBFFDFFEF0F03FFDEFE00FF9FF66
:10035000003E79F9CF9EF0F01F3DE7E01FF1FF006E
:1003600000000000000000000000001F80FF007F70
:10037000FFFFFFFFFFFFFFFFFFE01C007F007FFF8D
:10038000FFFFFEB46D888D18E000001F007FFFFFA7
:10039000FFFE95AD7DB577E000000F007FFFFFFF0A
:1003A000FEA5AD9D8D19E0000006007FFFFFFFFE5A
:1003B000B5ADEDB57EE0000000000001800000005A
:1003C00000000000000003800000000000000000AA
:1003D0000007C000000000000000000007C000008F
:1003E000000000000000000FC0000000000000003E
:1003F00000001FE00000000000000000001FE000FF
:1004000000000000000000003FE0000000000000CD
:100410000000003FF00000000000000000007FF03E
:10042000000000000000001FF87FF0000000000046
:1004300000003FFE7FF0000000000000003FFF7F53
:10044000F0000000000000001FFFFBE000000000C3
:100450000000000FFFF9FFC00000000000000FFFC8
:10046000F9FFF800000000000007FFF1FFFF0000A7
:100470000000000003FC73FFFF800000000000018B
:10048000FE3FFFFF80000000000000FF1E0FFF0086
:100490000000000000007FFE1FFC000000000000C4
:1004A000003FFFFFF8000000000000000FDFFFE04A
:1004B000000000000000001F19FFC0000000000045
:1004C00000003F3CFF00000000000000007E7CF8C0
:1004D00000000000000000007FFE7C000000000023
:1004E000000000FFFFFC0000000000000000FFFF14
:1004F000FE0000000000000000FFFFFE0000000002
:1005000000000001FFEFFE0000000000000001FFFE
:10051000CFFE0000000000000003FF07FE00000007
:100520000000000003FC07FE0000000000000003C4
:10053000F003FE00000000000000018000FE00004B
:1005400000000000000000007E000000000000002D
:100550000000003E000000000000000000000C0051
:100560000000000000078000FC000003C000000045
:10057000078001FC000003C0000000078001FC00B0
:100580000003C0000000078001E00000001E000022
:1005900000078001E00000001E007FE3F79FF9FDE7
:1005A000E7787BDFC0FFF7FFBFFDFDFF787BDFC093
:1005B000FFF7FFBFFDFDFF787BDFC0F0F787BC3D95
:1005C000E1FF787BDE00F0F787BC3DE1F0787BDE71
:1005D0000000F787803DE1E0787BDE007FF7879FB2
:1005E000FDE1E0787BDE00FFF787BFFDE1E0787B8F
:1005F000DE00F0F787BC3DE1E0787BDE00F0F787B6
:10060000BC3DE1E0787BDE00F0F787BC3DE1E078BF
:100610007BDE00FFF7FFBFFDE1E07FFBDFC0FFF700
:10062000FFBFFDE1E07FFBDFC07CF3F39F3DE1E036
:100630003E7BCFC00000000000000000000000FF73
:10064000FFFFFFFFFFFFFFFFFFC0FFFFFFFFFD6892
:10065000DB111A31C0FFFFFFFFFD2B5AFB6AEFC011
:10066000FFFFFFFFFD4B5B3B1A33C0FFFFFFFFFDAA
:100670006B5BDB6AFDC0434F4E4E454354494E47CA
:1006800000000020002300260029002C002F00324B
:100690000000010000030106010901454D455247D4
:1006A000454E43590053484F525400534552564902
:1006B0004345004F4646004F4E000000000000003A
:1006C00007F0000007F000000FF000003FF000000E
:1006D0003FF000007FF00001FFE00003FF80000317
:1006E000FF800007FF00001FFC00001FFC00003F10
:1006F000F80000FFF000FFFFFFF0FFFFFFF08000B9
:100700000010800000108000001080000010FFFF2B
:10071000FFF00000000000000000000000000000EA
:1007200000000000000000000000000000000000C9
:1007300007F0000007F000000C1000003810000067
:100740003810000070700001C0E0000383800003D7
:10075000838000060700001C0C00001C0C00003801
:10076000380000E07000FFC1FFF0FFC1FFF0800320
:10077000FFF08007FFF08007FFF0801FFFF0FFFF12
:10078000FFF000000000000000000000000000007A
:10079000000000000000000000005455524E4F556C
:1007A0005400474554204C4F430053454C45435457
:1007B000204C4F4300524553455420212100434FC4
:1007C0004E4649470000000000000007F000000707
:1007D000F000000FF000003FF000003FF000007F4D
:1007E000F00001FFE00003FF800003FF800007FF2F
:1007F00000001FFC00001FFC00003FF80000FFF09D
:1008000000FFFFFFF0FFFFFFF0FFFFFFF0FFFFFF24
:10081000F0FFFFFFF0FFFFFFF0FFFFFFF000000021
:1008200000000000000000000000000000000000C8
:1008300000000000002200FF2100000103070F1F3D
:100840003F7F0080C0E0F0F8FCFE00000000003EAA
:100850005B4F5B3E3E6B4F6B3E1C3E7C3E1C183C30
:100860007E3C181C577D571C1C5E7F5E1C00183C8C
:100870001800FFE7C3E7FF0018241800FFE7DBE7D5
:10088000FF30483A060E2629792926407F050507BC
:10089000407F05253F5A3CE73C5A7F3E1C1C080818
:1008A0001C1C3E7F14227F22145F5F005F5F0609DD
:1008B0007F017F006689956A606060606094A2FF36
:1008C000A29408047E040810207E201008082A1C28
:1008D00008081C2A08081E101010100C1E0C1E0CF4
:1008E00030383E3830060E3E0E0600000000000094
:1008F000005F00000007000700147F147F14242A03
:100900007F2A1223130864623649562050000807D4
:100910000300001C2241000041221C002A1C7F1CF5
:100920002A08083E080800807030000808080808F7
:10093000000060600020100804023E5149453E005E
:10094000427F400072494949462141494D331814BC
:10095000127F1027454545393C4A4949314121110B
:1009600009073649494936464949291E00001400FD
:100970000000403400000008142241141414141420
:10098000004122140802015909063E415D594E7C7E
:100990001211127C7F494949363E414141227F4133
:1009A00041413E7F494949417F090909013E414191
:1009B00051737F0808087F00417F41002040413F7C
:1009C000017F081422417F404040407F021C027F8B
:1009D0007F0408107F3E4141413E7F090909063EE0
:1009E0004151215E7F0919294626494949320301AF
:1009F0007F01033F4040403F1F2040201F3F4038C1
:100A0000403F631408146303047804036159494D9B
:100A100043007F4141410204081020004141417FD1
:100A20000402010204404040404000030708002047
:100A3000545478407F284444383844444428384447
:100A400044287F385454541800087E090218A4A47E
:100A50009C787F0804047800447D40002040403D9D
:100A6000007F1028440000417F40007C0478047817
:100A70007C080404783844444438FC1824241818AA
:100A8000242418FC7C080404084854545424040406
:100A90003F44243C4040207C1C2040201C3C4030F3
:100AA000403C44281028444C9090907C4464544C22
:100AB000440008364100000077000000413608007D
:100AC00002010204023C2623263C1EA1A161123A27
:100AD0004040207A38545455592155557941225473
:100AE000547842215554784020545579400C1E5278
:100AF000721239555555593954545459395554541D
:100B0000580000457C410002457D420001457C4083
:100B10007D1211127DF0282528F07C5455450020C7
:100B200054547C547C0A097F4932494949323A4439
:100B300044443A324A4848303A4141217A3A4240A4
:100B40002078009DA0A07D3D4242423D3D40404076
:100B50003D3C24FF2424487E4943662B2FFC2F2B49
:100B6000FF0929F620C0887E0903205454794100EA
:100B700000447D413048484A32384040227A007A69
:100B80000A0A727D0D19317D2629292F2826292947
:100B9000292630484D402038080808080808080869
:100BA000382F10C8ACBA2F102834FA00007B000090
:100BB00008142A142222142A14085500550055AA94
:100BC00055AA55AAFF55FF55FF000000FF00101061
:100BD00010FF00141414FF001010FF00FF1010F09D
:100BE00010F0141414FC001414F700FF0000FF00B0
:100BF000FF1414F404FC141417101F10101F101FFE
:100C00001414141F00101010F0000000001F10102A
:100C100010101F10101010F010000000FF10101026
:100C2000101010101010FF10000000FF140000FF43
:100C300000FF00001F10170000FC04F4141417102C
:100C4000171414F404F40000FF00F714141414141F
:100C50001414F700F7141414171410101F101F1495
:100C60001414F4141010F010F000001F101F0000F6
:100C7000001F14000000FC140000F010F01010FF22
:100C800010FF141414FF141010101F00000000F0C7
:100C900010FFFFFFFFFFF0F0F0F0F0FFFFFF00009C
:100CA000000000FFFF0F0F0F0F0F3844443844FCC3
:100CB0004A4A4A347E02020606027E027E026355DA
:100CC0004941633844443C04407E201E2006027E95
:100CD000020299A5E7A5991C2A492A1C4C720172A7
:100CE0004C304A4D4D303048784830BC625A463D11
:100CF0003E494949007E0101017E2A2A2A2A2A44C6
:100D0000445F444440514A444040444A51400000FA
:100D1000FF0103E080FF000008086B6B0836123605
:100D20002436060F090F06000018180000001010E6
:100D3000003040FF0101001F01011E00191D1712A4
:100D4000003C3C3C3C0000000000202020312E30C4
:100D50002E3100205243352058504E4554001E007D
:100D60003F007F80FFC0FFC0FFC0FFC07F803F000B
:100D70001E0000000000C0000CCC0004080040C0B1
:100D80008063F1800408000C0C00C804C0E804C0B3
:100D90000804000C0C0024090066198002100003EE
:100DA000300000000001E00001E00001200000C070
:100DB0000000000000000000000FFF80000FFF8017
:100DC0000E0E03801E0603001E0603001F0607000A
:100DD0003FFFFF803FFFFF807FFFFF807FFFFF809F
:100DE0003FFF83803FFF01803FFF118063C7118079
:100DF000618301806187830033C6C7003E7CFE00AB
:100E000008101000000000007FFC00007FFC0000C4
:100E1000701C1C0030181E0030181E0038183E00D0
:100E20007FFFFF007FFFFF007FFFFF807FFFFF80CE
:100E3000707FFF00603FFF00623FFF006238F1807B
:100E4000603061803078618038D8F3001FCF9F0018
:100E50000202040000002100240027002A002D00C7
:100E60003000330001010000040107010A01000005
:100E70002200250028002B002E0031003400020142
:100E80000000050108010B01050505050705080817
:100E90000808020202020A0A080804040404010104
:100EA0000101010101010303030303030303040719
:100EB00007070C0C0C0C0C0C0C0C020202020606B0
:100EC0000606060606060B0B0B0B0B0B0B0B0102A3
:100ED000102020080810204010204080020102014C
:100EE0000804020101020408102040808040201004
:100EF000080402018004020180402010080402015D
:100F000008040201010204081020408001020408C4
:100F10001020408000000A0B02090C0D0E08070388
:100F200004010000000000000000000000000000BC
:100F300000000000000000000000000000000000B1
:100F4000121110000000000000000000000000006E
:100F5000000000000000000000007939D33A11249D
:100F60001FBECFEFD1E2DEBFCDBF00E00CBF13E06C
:100F7000A0E0B2E0ECEBF9E700E00BBF02C00790A5
:100F80000D92A833B107D9F725E0A8E3B3E001C07B
:100F90001D92AA3CB207E1F717E0CEEAD7E000E0E5
:100FA00006C021970109802FFE010E94803BCD3AA7
:100FB000D10780E00807A9F70E94842F0C94CD3C4C
:100FC0001FC880918F03882331F085EA96E00E9444
:100FD000F21510920202089580918F03882351F038
:100FE00082EA97E00E94F21581E080936A031092F2
:100FF0000202089580916903811106C060916B031C
:1010000080916C030C948F1380916E03E0916D03BB
:10101000823039F4F0E0E45CFD4F80818093680316
:1010200002C0E093680310926A03E0918103F0919B
:10103000820384819581909391038093900381E052
:1010400080938F03809392030895EF92FF920F9302
:101050001F93CF9380918F03882309F43FC0E12C25
:10106000F12C0AE010E02FE730E040E050E060E0D3
:1010700070E081EF94E00E94311C8AE997E00E94C1
:10108000F2151092020206E310E02FE730E04AE08A
:1010900050E060E070E081EF94E00E94311C82E05B
:1010A0008093050583E090E09093FE048093FD0417
:1010B00084E190E0909300058093FF0460915203D7
:1010C0007091530380E090E04AE00E941D16CF919A
:1010D0001F910F91FF90EF900C9490148091450315
:1010E000882309F4E5C080914603893209F47FC062
:1010F00080F48431C9F118F48A30F8F0D9C088310D
:1011000009F469C0883209F472C0853109F0D0C091
:101110005AC08C3209F47DC038F48A3209F470C0A8
:101120008B3209F489C0C4C08E3209F47BC008F444
:1011300070C08F3209F476C0BBC040915203509109
:1011400053039AE0949F9001959F300D1124A901BB
:10115000480F511DCA01803157E2950728F490933A
:1011600053038093520304C010925303109252030E
:10117000E12CF12C06E110E022E330E04DE050E0FC
:1011800062E070E081EF94E00E94311C82E0809385
:10119000050583E090E09093FE048093FD0484E1D4
:1011A00090E0909300058093FF046091520370914A
:1011B000530380E090E04AE00E941D160E949014C4
:1011C0001092450375C08091520390915303892B6F
:1011D00009F46EC031C08091520390915303892B62
:1011E00009F466C010924503C1E049E029C060914E
:1011F0005203709153034EEC52E082E190E01AC02A
:10120000609152037091530340ED52E084E190E00D
:1012100011C0609152037091530342ED52E086E198
:1012200090E008C0609152037091530344ED52E086
:1012300088E190E00E94642810924503C0E048E0F5
:1012400080915203909153036FEF680F0197892F9C
:101250000E94812DE12CF12C0CE110E02CE130E01A
:101260004CE050E066E470E081EF94E00E94311CB5
:101270008CE1E82EF12CC13019F42AE237E004C0E9
:101280000CE110E02AEB36E04CE050E066E470E060
:1012900081EF94E00E945D160E9490140E942E2F10
:1012A000609361037093620380936303909364037C
:1012B000CF911F910F91FF90EF90089580918F0330
:1012C000882371F010926A0387EB96E00E94F21572
:1012D0000E944F2910920202109258030C949D2AEA
:1012E0008091690381110E944F29809145038823D1
:1012F00009F41CC160914603862F90E08733910565
:1013000008F014C1FC018827EE58FF4F8F4F0C9452
:10131000803B10926803809167038111B1C080E81F
:1013200080936703ADC01092680380916703803893
:1013300009F0A6C010926703A3C080916503909145
:1013400066038E7F909366038093650360916B03C1
:1013500020E040E080916C030E94292B109245030D
:101360000E942E2F60934E0370934F03809350037F
:1013700090935103089540E060E070E005C070E094
:10138000645171094091580380916B0390916C03F3
:101390000E94282890936603809365036EC0109284
:1013A000450380915803877F09F09BC084E08093B8
:1013B00058030E942E2F6093590370935A03809311
:1013C0005B0390935C030C94DF2A10924503809199
:1013D00058038B7F09F085C088E0809358030E94F2
:1013E0002E2F6093590370935A0380935B0390935D
:1013F0005C030C94B52A80916703803821F48091B6
:1014000068038F5F10C080916803882309F487CF39
:1014100009C080916703803891F780916803882321
:1014200009F488CF8150809368032AC060E001C02E
:1014300061E082E10EC060E001C061E084E109C0CA
:1014400060E001C061E086E104C060E001C061E0ED
:1014500088E10E94B42811C060E088E090E00BC0F1
:1014600061E08AE090E007C062E08BE090E003C0BA
:1014700063E08DE090E00E94E72710924503089515
:101480000E942E2F60934E0370934F03809350035E
:10149000909351031092450390916E0360916B03FA
:1014A00080916C03923011F1943091F1913099F464
:1014B000909168039F3018F09EE090936803E0914C
:1014C0006803F0E0E35FFD4F208190916703292BD3
:1014D00041E00E94FA1660916B0380916C030E94B8
:1014E0008F130E949D2A10925803089590916803CB
:1014F0009D3118F09CE190936803E0916803F0E05F
:10150000E35FFD4F208190916703292B42E0E1CFFB
:101510009091680397FF03C09FE790936803209121
:10152000670390916803292B44E0D3CF08958091FD
:101530008F038823E1F083EB96E00E94F2158091FF
:101540000202811112C0109255031092540310929E
:101550006D0360916B0320E040916E0380916C03FA
:101560000E94FA160E944F2902C010920202809136
:1015700045038823C9F1209146032A3018F024310D
:1015800079F1089540915403509155033AE0349F06
:10159000C001359F900D1124820F911D909355032A
:1015A00080935403873027E8920781F4E091790310
:1015B000F0917A03848195819093910380939003B5
:1015C00081E080938F038093920307C0883097480F
:1015D00020F0109255031092540310924503089581
:1015E0001092550310925403089580918F0388231D
:1015F00041F00E94092B8BEA96E00E94F2151092AE
:1016000002020895CF93DF931F921F92CDB7DEB7EA
:1016100080918F03882321F180E889838A8362E0A7
:10162000CE01019694D78BE996E00E94F215809145
:101630000202811112C010925503109254031092AD
:101640006D0360916B0320E040916E0380916C0309
:101650000E94FA160E944F29DBC010920202D8C0E5
:101660008091690381110E944F298091450388234D
:1016700009F4CEC060914603862F90E0FC0170977C
:10168000E732F10508F0C4C08827E755FF4F8F4FB8
:101690000C94803B80916703811196C080E8809311
:1016A000670392C080916703803809F08DC0109263
:1016B00067038AC080916503909166038E7F909343
:1016C00066038093650360916B0320E040E08091A6
:1016D0006C030E94292B109245030E942E2F6093C9
:1016E0004E0370934F03809350039093510390C027
:1016F00040E060E070E005C070E064517109409125
:10170000580380916B0390916C030E94282890935A
:1017100066038093650355C010924503809158037A
:10172000877F09F071C084E0809358030E942E2FB8
:101730006093590370935A0380935B0390935C0307
:101740000E94DF2A65C010924503809158038B7F69
:1017500009F05AC088E0809358030E942E2F6093AE
:10176000590370935A0380935B0390935C030E9428
:10177000B52A4EC060E001C061E082E10EC060E0C9
:1017800001C061E084E109C060E001C061E086E180
:1017900004C060E001C061E088E10E94B42811C08B
:1017A00060E088E090E00BC061E08AE090E007C074
:1017B00062E08BE090E003C063E08DE090E00E9487
:1017C000E7271092450324C0109245031092680346
:1017D0000E942E2F60934E0370934F03809350030B
:1017E0009093510360916B0320916703809168038C
:1017F000282B40916E0380916C030E94FA16609131
:101800006B0380916C038BD70E949D2A1092580322
:101810000F900F90DF91CF910895CF93DF93809138
:101820008F03882309F431C180E090E00E94B02644
:10183000883281F0C0E0D0E06FEFCE010E94AE268A
:101840002196C11520E1D207B9F768E280E090E067
:101850000E94AE2686E090E00E94B0269FEF980F8F
:101860009F3118F48093030208C08EE18093030235
:101870006EE186E090E00E94AE26C09103021092D5
:10188000D2041092D1041092D3041092D404109276
:10189000D5041092D6040E942E2F6093CA04709330
:1018A000CB048093CC049093CD0480E090E0892B0E
:1018B00021F08091D1040E940000C093940386E13E
:1018C0008093950361E00E944C2E60E08091950327
:1018D0000E941D2EC09194038C2F0E94E517282F83
:1018E00030E0316030939B0320939A038C2F806407
:1018F0000E94E517282F30E0316030939903209340
:1019000098038C2F80660E94E51790E09160909379
:10191000970380939603F8941092CD008FE0809304
:10192000CC001092C8008CE98093C90086E08093B7
:10193000CA00789483E993E09093BC058093BB053B
:1019400082E090E00E94B026882351F0813019F4A3
:101950008093570307C060E082E090E00E94AE26CB
:101960001092570384E090E00E94B026882329F06B
:10197000813031F4809344030AC01092440307C0BD
:101980001092440360E084E090E00E94AE2680E183
:1019900090E00E94B02680935603813021F1A0F0A0
:1019A0008230B9F1833009F043C08DE090E00E94AD
:1019B000B026C82FD0E0DC2FCC27D0936C03C09387
:1019C0006B038EE090E01DC088E090E00E94B0269E
:1019D000C82FD0E0DC2FCC27D0936C03C0936B03CF
:1019E00089E090E00EC08AE090E00E94B026C82F07
:1019F000D0E0DC2FCC27D0936C03C0936B038BE03B
:101A000090E00E94B026C82BD0936C03C0936B0368
:101A100028C08BE090E00E94B026C82FD0E0DC2FD9
:101A2000CC27D0936C03C0936B038CE090E0E9CF9C
:101A300083E090E090936C0380936B0310925603C5
:101A400060E088E090E00E94AE2660916B0389E040
:101A500090E00E94AE266091560380E190E00E94E3
:101A6000AE2680916B0390916C038031974230F0E9
:101A700083E090E090936C0380936B0360916B0321
:101A800080916C03DF91CF914AC6DF91CF91089589
:101A9000FC01828193810895FC01828193810895E4
:101AA00080930002089580914503882341F080913E
:101AB00046038E3021F41092450381E0089580E0C2
:101AC000089580914503882341F0809146038D302D
:101AD00021F41092450381E0089580E008958091FB
:101AE0000002811108C080910402882321F0109225
:101AF000040281E0089580E0089580910002823020
:101B000041F490910402923021F08093040281E02C
:101B1000089580E0089580910002803241F4909110
:101B20000402903221F08093040281E0089580E065
:101B3000089580910002843041F490910402943021
:101B400021F08093040281E0089580E0089580915F
:101B50000002813039F490910402913019F08093A1
:101B60000402089580E008950F931F93CF93DF93AD
:101B7000EC018B0184E090E00E94883BFC01138221
:101B80001282118300832C813D81232B29F0EE8169
:101B9000FF819383828302C09D838C839F838E8386
:101BA0008A819B8101969B838A831C8681E0DF91D9
:101BB000CF911F910F9108950F931F93CF93DF93B0
:101BC000EC018B0184E090E00E94883BFC011382D1
:101BD0001282118300832C813D81232B29F0EE8119
:101BE000FF819383828302C09D838C839F838E8336
:101BF0008A819B8101969B838A831C8681E0DF9189
:101C0000CF911F910F9108950E94B226009721F065
:101C1000FC0180819181089580E090E00895AF9269
:101C2000BF92CF92DF92EF920F93CF93DF93CDB716
:101C3000DEB770E0782B80916B0390916C03861770
:101C4000970711F500936D03E0926F03D12CC4FA4E
:101C5000442740F950E0CC0CDD1C8EE1C822DD2485
:101C6000C42AD52A80E2A89E50011124CA28DB2864
:101C7000D0927103C0927003223021F0243011F011
:101C8000211144C020936E0347E050E06DE373E000
:101C90008BE693E00E94B93C892B21F480916A0382
:101CA0008823A1F181E08093690387E0EBE6F3E00C
:101CB000ADE3B3E001900D928A95E1F780916A035C
:101CC000882321F180916E03823039F0843011F045
:101CD00081110AC00093680307C0E02FF0E0E45CC4
:101CE000FD4F80818093680380916F03813021F4E0
:101CF00080E88093670302C01092670380917003AD
:101D0000909171039093660380936503DF91CF9167
:101D10000F91EF90DF90CF90BF90AF900895EF922A
:101D2000FF920F931F930E942E2F00916103109139
:101D300062032091630330916403DC01CB01801BBB
:101D4000910BA20BB30B893E9340A105B10528F17D
:101D50000E942E2F6093610370936203809363034C
:101D600090936403E12CF12C0CE110E02CE130E0C5
:101D70004CE050E066E470E081EF94E00E94311C9A
:101D80008CE1E82EF12C25EC37E04CE050E066E4E5
:101D900070E081EF94E091D7C3D580E01F910F915F
:101DA000FF90EF900895EF92FF920F931F930E9480
:101DB0002E2F00915D0310915E0320915F033091FF
:101DC0006003DC01CB01801B910BA20BB30B8D3D9B
:101DD0009540A105B105C8F00E942E2F60935D03C8
:101DE00070935E0380935F0390936003E12CF12C6A
:101DF00008E010E02EE130E040E050E069E170E002
:101E000081EF94E00E94311C8BD580E01F910F91EF
:101E1000FF90EF9008950F931F930E942E2F009133
:101E2000590310915A0320915B0330915C03DC014C
:101E3000CB01801B910BA20BB30B81319742A10503
:101E4000B10590F00E942E2F6093590370935A03AE
:101E500080935B0390935C0380915803882321F067
:101E60000E949D2A1092580380E01F910F910895BF
:101E7000CF93DF9300D0CDB7DEB7809145038823A1
:101E800059F1809146038C3039F5809100028330FE
:101E900018F4813030F00EC0843061F0803281F06F
:101EA00019C080915703882359F080E889838A8379
:101EB00062E00DC081E2898381E88A8380EA05C0FF
:101EC00081E2898380E88A8381EA8B8363E0CE01A3
:101ED00001963DD31092450380E00F900F900F9034
:101EE000DF91CF910895EF92FF920F931F93CF93BD
:101EF000DF9380918F03882309F498C010927403B4
:101F0000109203028EEB97E06DD61092730310923D
:101F10007203E12CF12C08E310E020E830E048E007
:101F200050E060E070E081EF94E00E94311C81E0BD
:101F300080930505C5E0D0E0D093FE04C093FD0476
:101F400084E1E82EF12CF0920005E092FF0486ED8A
:101F500092E072D60CE310E01093FE040093FD04AF
:101F6000F0920005E092FF046091030270E080E0CF
:101F700090E04AE062D6D093FE04C093FD04CEE127
:101F8000D0E0D0930005C093FF0480EE92E054D6D9
:101F90001093FE040093FD04D0930005C093FF044A
:101FA00082E090E00E94B026882351F0813019F43D
:101FB00084EF92E007C060E082E090E00E94AE26ED
:101FC0008AEE92E039D685E090E09093FE0480930B
:101FD000FD04C8E2D0E0D0930005C093FF048EEF6B
:101FE00092E02AD68CE390E09093FE048093FD0467
:101FF000D0930005C093FF0484E090E00E94B026D7
:10200000882351F0813019F48DE093E007C060E03F
:1020100084E090E00E94AE2688E093E00DD6DF9148
:10202000CF911F910F91FF90EF907AC4809145035B
:10203000882309F4E3C0809146038C3009F46FC013
:1020400018F48A3058F0DAC0883109F444C008F432
:10205000D5C08052823008F4A1C0D0C09091030254
:102060002AE0929F800D1124803218F4809303029D
:1020700002C010920302E12CF12C0AE010E023E3ED
:1020800030E044E150E06CE370E081EF94E00E94C6
:10209000311C8CE390E09093FE048093FD0484E176
:1020A00090E0909300058093FF046091030270E03C
:1020B00080E090E04AE0C1D533D46091030266230A
:1020C00039F086E090E00E94AE2681E080937403B0
:1020D0001092450393C080917403882371F085EBBF
:1020E00097E080D598E088E10FB6F894A8958093A2
:1020F00060000FBE9093600081C010924503E09194
:102100008303F0918403848195819093910380935C
:10211000900381E080938F03809392036FC0E12C42
:10212000F12C0AE010E02CE330E04EE150E06CE3EB
:1021300070E081EF94E00E94311C8CE390E090937A
:10214000FE048093FD048EE190E09093000580935F
:10215000FF0482E090E00E94B026882339F08130AD
:1021600071F48AEE92E068D560E004C084EF92E0FA
:1021700063D561E082E090E00E94AE2608C060E096
:1021800082E090E00E94AE268AEE92E055D5C8D358
:102190001092450381E08093740330C0E12CF12C50
:1021A0000AE010E023E330E048E250E06CE370E046
:1021B00081EF94E00E94311C8CE390E09093FE0448
:1021C0008093FD0488E290E0909300058093FF04E3
:1021D00084E090E00E94B026811108C061E084E0B4
:1021E00090E00E94AE268DE093E0D0CF60E084E0E6
:1021F00090E00E94AE2688E093E0C8CFDF91CF91B7
:102200001F910F91FF90EF900895EF92FF920F931F
:102210001F93CF93DF9380918F03882309F44CC0E1
:102220008AEA97E0DFD41092730310927203E12CD4
:10223000F12C08E010E02CE130E040E050E06EE6E8
:1022400070E081EF94E00E94311C08E310E020E888
:1022500030E048E050E060E070E081EF94E00E9400
:10226000311C82E08093050581E090E09093FE04AC
:102270008093FD04CEE0D0E0D0930005C093FF042E
:1022800086E193E0D9D48BE490E09093FE048093B0
:10229000FD04D0930005C093FF0460917203709118
:1022A000730380E090E04AE0C8D4DF91CF911F91A2
:1022B0000F91FF90EF9034C380914503882309F478
:1022C000D4C080914603843169F130F48A3098F0AB
:1022D0008D3009F452C0C7C0843309F482C020F4A1
:1022E000833309F466C0BFC0853309F490C08633D8
:1022F00009F4A3C0B8C040917203509173039AE0EF
:10230000949F9001959F300D1124A901480F511DF4
:10231000CA01803157E2950728F4909373038093A4
:10232000720304C01092730310927203E12CF12C1B
:1023300000E410E023E330E04AE050E06AE470E0BB
:1023400081EF94E00E94311C8BE490E09093FE04B6
:102350008093FD048EE090E0909300058093FF044D
:1023600082E080930505609172037091730380E0B1
:1023700090E04AE062D4D4D276C0109245038091B6
:10238000720390917303009721F090936C038093F4
:102390006B03E0917F03F09180038481958190939A
:1023A00091038093900381E080938F038093920345
:1023B0005CC060917203709173036115710509F43B
:1023C00052C070936C0360936B031092560340E00D
:1023D00088E090E00E9498288EEC92E00E942529E7
:1023E00042C0609172037091730361157105D9F158
:1023F00070936C0360936B0381E08093560341E01C
:102400008AE090E00E94982880ED92E0E7CF60910A
:102410007203709173036115710529F170936C0358
:1024200060936B0382E08093560342E08BE090E080
:102430000E94982882ED92E0D1CF60917203709152
:1024400073036115710579F070936C0360936B03EE
:1024500083E08093560343E08DE090E00E9498284B
:1024600084ED92E0BBCF10924503DF91CF911F9195
:102470000F91FF90EF900895DC011496ED91FC917F
:1024800015971C968C911C97882361F01A962D91B4
:102490003C911B97621773072CF01896ED91FC91F5
:1024A00019970AC020E030E007C03097C9F00280D9
:1024B000F381E02D2F5F3F4F26173707B4F3261720
:1024C000370771F481E01C968C931C971B963C9304
:1024D0002E931A971996FC93EE931897CF010895AF
:1024E00080E090E00895C8DF009721F0FC01808132
:1024F0009181089580E090E0089529E0829FC001D5
:1025000011248D569C4FFC01E655FF4F20812F3F33
:10251000E1F4319620812F3FC1F4329620812F3F84
:10252000A1F4319620812F3F81F4319620812F3FF5
:1025300061F4319620812F3F41F4319620812F3F65
:1025400021F4319681E09081911180E00895EDEAC7
:10255000F3E020E030E0408141111BC079E0729F40
:10256000A001739F500D1124FA01ED56FC4F628FAC
:10257000FC0180E090E0861750F42191DC01A40F6B
:10258000B51FAD56BC4F5B962C930196F4CF81E0FE
:1025900008952F5F3F4F399620313105E1F680E0F5
:1025A00008959C01FC0190E070E061507109AF0159
:1025B000421B530B461757071CF481919827F7CFFE
:1025C00090830895EF92FF920F931F93CF93DF9321
:1025D000F82EE62E03E913E0C0E0D0E0F801E6555E
:1025E000FF4F80818E1104C0319680818F1521F0BC
:1025F0008C2F83DF882359F08C2F7FDF8823B1F164
:1026000089E08C9F90018D9F300D112418C0219678
:10261000075F1F4FCF30D10509F7E5E4F4E090E004
:10262000C0E08FEF2081281710F4822FC92F399630
:102630009F5F9F30B9F789E0C89F900111242D5604
:102640003C4FF901E655FF4FE0823196F08231961A
:102650008BE0808331961082319610823196108201
:102660003196108231961082319610828C2FDF9134
:10267000CF911F910F91FF90EF9008956F927F92ED
:102680008F92AF92CF92EF92FF920F931F93CF93BF
:10269000DF931F92CDB7DEB7182FF62E498392DF56
:1026A00029E0829FC00111249C012D563C4F390125
:1026B000F901E455FF4F9081329620813196A08038
:1026C0003196808031968081322F3F71C32E25FB59
:1026D000EE24E0F83497292F237093FB992790F983
:1026E00049814F938F930081492F6F2D812F97DA66
:1026F0000F900F90F301EE54FF4F80818F3F11F048
:102700008F5F80830F90DF91CF911F910F91FF908A
:10271000EF90CF90AF908F907F906F900895EF9251
:10272000FF920F931F93CF93DF9300D01F921F92BE
:10273000CDB7DEB7182F062F40E0A0DF602F812F26
:1027400041DF282F30E099E0899FF0011124EB5BF5
:10275000FB4F80818F3F11F08F5F808389E0829FE4
:10276000F001839FF00D1124E15CFB4F808183FF1A
:102770001FC08091C4049091C504892BC9F4802F97
:1027800090E0912B9093C5048093C404FE01319690
:102790007F0185E011928A95E9F783EE89831B8397
:1027A0000C8365E0C701FDDE65E0C701D0DE01C036
:1027B00080E00F900F900F900F900F90DF91CF91CE
:1027C0001F910F91FF90EF900895FF920F931F9329
:1027D000CF93DF93EC01F62E80910D0590910E05BD
:1027E000009709F451C02091110531E0309378032E
:1027F000209377031092760310927503DC01ED911C
:10280000FC910190F081E02D60E019958E01D1E0FE
:10281000CF0DFF24F39480910D0590910E05C01704
:1028200061F1D032C8F00E94502180911105F092E0
:10283000780380937703109276031092750380914A
:102840000D0590910E05DC01ED91FC910190F08158
:10285000E02D60E01995D1E080910D0590910E0575
:10286000F8016491DC01ED91FC910190F081E02D83
:102870001995DF5F0F5F1F4FCECFDF91CF911F9173
:102880000F91FF900C945021E0911D05F0911E05D1
:102890002081809123058095822380838E01C60F3D
:1028A000C017C1F1F801849120910B0530910C05FE
:1028B000232B19F00E9446212AC028E030E040E88E
:1028C000E0911905F0911A0590912105542F582394
:1028D00019F05081952B03C05081909595239083DA
:1028E000E0911B05F0911C05508190912205952BDC
:1028F0009083E0911B05F0911C0550819091220579
:10290000909595239083469521503109C9F60F5F24
:102910001F4FC6CFDF91CF911F910F91FF90089568
:10292000CF92DF92EF92FF920F931F93CF93DF939B
:102930001F92CDB7DEB780910D0590910E05892BC2
:1029400059F0609125057091260580912705909199
:1029500028050E943F2316C080910B0590910C051D
:10296000892B31F080912E0590912F050E944D21E9
:10297000E0911F05F09120059081809124058095BC
:102980008923808365E085E398E01FDF6091F5048B
:10299000615081EF94E00E94AD212091F7043091C5
:1029A000F804C901079697FD079623E0959587954A
:1029B0002A95E1F72091F5043091F604829F800179
:1029C000839F100D929F100D1124E0900F05F09041
:1029D000100580910D0590910E050E0D1F1D00979D
:1029E00009F44EC02091110531E030937803209313
:1029F00077031092760310927503DC01ED91FC9140
:102A00000190F081E02D60E41995670121E0FF2439
:102A1000F39480910D0590910E05C016D10669F1D1
:102A20002032C8F00E94502180911105F092780365
:102A300080937703109276031092750380910D05B1
:102A400090910E05DC01ED91FC910190F081E02D5B
:102A500060E4199521E080910D0590910E05F60135
:102A600061916F01DC01ED91FC910190F081E02D0D
:102A70002983199529812F5FCCCF0E94502143C013
:102A8000E0911D05F0911E05908180912305892B11
:102A90008083E016F106B9F1F70181917F01209161
:102AA0000B0530910C05232B19F00E944621F1CF24
:102AB00028E030E040E8E0911905F0911A05909186
:102AC0002105542F582319F05081952B03C05081B4
:102AD000909595239083E0911B05F0911C05508102
:102AE00090912205952B9083E0911B05F0911C0598
:102AF0005081909122059095952390834695215081
:102B00003109C9F6C6CF80910D0590910E05892B2C
:102B100099F06091290570912A0580912B0590917B
:102B20002C050F90DF91CF911F910F91FF90EF90A7
:102B3000DF90CF900C943F23E0911F05F09120058A
:102B4000908180912405892B808380910B05909141
:102B50000C05892B59F00F90DF91CF911F910F91A8
:102B6000FF90EF90DF90CF900C9445210F90DF9174
:102B7000CF911F910F91FF90EF90DF90CF9008952C
:102B8000009761F0FC0101900020E9F73197AF0157
:102B9000481B590BBC0181EF94E045C280E090E0F6
:102BA00008950F931F93CF93DF938C01C0E0D0E083
:102BB000F801EC0FFD1F6491662371F0E091F104C0
:102BC000F091F2040190F081E02D81EF94E01995ED
:102BD000892B11F02196ECCFCE01DF91CF911F917F
:102BE0000F910895EF92FF920F931F93CF93DF936E
:102BF000EC01E12CF12C0AE010E02FE730E040E09E
:102C000050E060E070E081EF94E02BD6E1EFF4E07B
:102C100081E0848B83E090E0958784871786168611
:102C2000CE01BFDF8DE193E0ABDFDF91CF911F914C
:102C30000F91FF90EF9074CEA3CF8F929F92AF929F
:102C4000BF920F931F93CF93DF93CDB7DEB7A197BA
:102C50000FB6F894DEBF0FBECDBF19A2423008F404
:102C60004AE08E010F5D1F4F842E912CA12CB12CB8
:102C7000A50194010E945E3BE62FB901CA010150F3
:102C80001109EA3014F4E05D01C0E95CD801EC936D
:102C9000232B242B252B61F7C80172DFA1960FB6D9
:102CA000F894DEBF0FBECDBFDF91CF911F910F9182
:102CB000BF90AF909F908F9008953F924F925F92F8
:102CC0006F927F928F929F92AF92BF92CF92DF923C
:102CD000EF92FF920F931F93CF93DF93CDB7DEB7A1
:102CE00028970FB6F894DEBF0FBECDBF6C017E8370
:102CF0006D832A013901DC01ED91FC910284F38599
:102D0000E02D1995C801079697FD0796FC0193E001
:102D1000F595E7959A95E1F7FA83E983812C912C53
:102D2000A12CB12C312CC501840D951D9C838B8366
:102D3000AE14BF040CF03FC018861F82EF81F885E7
:102D4000E017F10784F58F81988587709927892B83
:102D500011F0330C0EC0EF81F885F7FD379683E054
:102D6000F595E7958A95E1F7E80DF91DE60DF71D54
:102D7000349037FE12C0D601ED91FC910484F585A4
:102D8000E02D21E030E04B815C816D817E818F817F
:102D90009885680F791FC6011995AF81B88511967E
:102DA000B887AF83CBCFFFEFAF1ABF0A29813A8133
:102DB000820E931EB8CFD601ED91FC910688F7895B
:102DC000E02DC60128960FB6F894DEBF0FBECDBF2A
:102DD000DF91CF911F910F91FF90EF90DF90CF90F7
:102DE000BF90AF909F908F907F906F905F904F902B
:102DF0003F901994EF92FF920F931F93CF93DF931D
:102E0000CDB7DEB728970FB6F894DEBF0FBECDBFA3
:102E1000F82EE62E8E010F5F1F4F86E0F80111920B
:102E20008A95E9F784EE8983FB826C832D83842F56
:102E300080618A8366E0C80128874F83B2DB66E041
:102E4000C80185DB182F6E2D8F2DBCDB682F70E03D
:102E500099E0899FF0011124ED56FC4FDF01A45544
:102E6000BF4F9C919C7F4F81492B4C931196288595
:102E7000822F8F778C93E255FF4F908127FF02C0FE
:102E8000906201C09F7D908389E0869FF001879FBB
:102E9000F00D1124EB5BFB4F90819F3F11F09F5F82
:102EA0009083812F28960FB6F894DEBF0FBECDBF5A
:102EB000DF91CF911F910F91FF90EF9008950F93A5
:102EC0001F93CF93DF9380918D0390918E03DC014C
:102ED000ED91FC910190F081E02D1995892B09F479
:102EE0006FC08091900390919103019621F410920C
:102EF00091031092900380918D0390918E03DC01D9
:102F0000ED91FC9160919003709191030088F1899B
:102F1000E02D1995EC01E881F98119958A819B8151
:102F2000DC01ED91FC910190F081E02D1995892B48
:102F300079F100E010E08A819B81DC01ED91FC9148
:102F40000190F081E02D1995081719070CF58A8179
:102F50009B81DC01ED91FC910088F189E02DB801A5
:102F60001995DC01ED91FC911995882371F08A8106
:102F70009B81DC01ED91FC910088F189E02DB80185
:102F80001995FC018281938105C00F5F1F4FD3CF3C
:102F90008C819D8120919203211110C021E04091EC
:102FA0009003509191034817590709F420E02093AA
:102FB0008F03909391038093900302C01092920329
:102FC000DF91CF911F910F9108958F77982F20E077
:102FD00031E0992329F023274FEF490F9423F9CFAC
:102FE0002111806808952091F7043091F804C901F7
:102FF000079697FD079623E0959587952A95E1F723
:103000002091F5043091F604829FA001839F500D1A
:10301000929F500D112460E070E080910F05909117
:1030200010050C94C63CCF92DF92EF92FF920F9363
:103030001F93CF93DF936C017A018B01C0E0D0E046
:10304000CE15DF0589F0D8016D918D01D601ED9186
:10305000FC910190F081E02DC6011995892B11F4A6
:103060007E0102C02196ECCFC701DF91CF911F9165
:103070000F91FF90EF90DF90CF9008950895FC019D
:103080006370658B8481958126813781613039F049
:10309000633029F0918780873387228708953187AD
:1030A00020879387828708952F923F924F925F9255
:1030B0006F927F928F929F92AF92BF92CF92DF9248
:1030C000EF92FF920F931F93CF93DF93CDB7DEB7AD
:1030D0006C970FB6F894DEBF0FBECDBF9C8F8B8F61
:1030E0005B011A011F830E833701C982DC015896E8
:1030F0004D915C9159974115510509F0E5C018961D
:103100008D919C911997681779070CF0CAC11A968E
:103110008D919C911B97281639060CF0C2C18C2CFE
:10312000912CFB0136E0C39EE00DF11D1124FB87BD
:10313000EA871E161F060CF0B4C1C40133E0880FE5
:10314000991F3A95E1F79D878C87820D931D18167C
:1031500019060CF0A6C157968C91811103C0203B33
:1031600008F02F5FAB8DBC8DED91FC91119702841F
:10317000F385E02DCD012A8F19952A8DB5E02B9F7F
:1031800090011124F5013596FF87EE87BB82AA8254
:103190002501A9014A195B09598B488BC101089681
:1031A0009B8B8A8BE889F989E40DF51DE65BF74F67
:1031B0009491988761013D822C82A885A0FF13C05D
:1031C000AB8DBC8DED91FC91B981B13031F40484AB
:1031D000F585E02D2E813F8116C00684F785E02D10
:1031E000EE80FF801AC0EE81FF816E167F06F1F03F
:1031F000AB8DBC8DED91FC91B981B13051F404845B
:10320000F585E02D9301A601B2018B8D9C8D19955A
:103210000DC00684F785E02D7301840194014C8173
:103220005D816A817B818B8D9C8D1995E885E69502
:10323000E887FFEFCF1ADF0A2C813D81280D391D69
:103240003D832C834A895B89C416D50609F0B5CF26
:103250005FEF451A550A8A819B81880D991D9B83D2
:103260008A83AE85BF854A165B0609F09BCFEE8147
:10327000FF816E167F0609F4F2C0EB8DFC8DA081F4
:10328000B181F981F13079F4B5016B5F7F4F5096D0
:10329000ED91FC915197830128E030E0A1018B8DE5
:1032A0009C8D1995DCC06A857B85681979091E9605
:1032B000ED91FC911F9773010C851D859401A1016F
:1032C0008B8D9C8D1995CBC0FA01349694913297D1
:1032D00065917491291BCB01B7E02B9F800D911D47
:1032E0001124FA01259134913B8B2A8BFC014591E5
:1032F00054915B834A83FC013296C4903196549179
:103300005E87329614913196D4908981823058F03C
:10331000612E012E000C7708AD2D0D2C000CBB0B7F
:10332000B987A88704C019861886612C712CAB8DCB
:10333000BC8DED91FC9111970284F385E02DCD01B8
:103340001995B9818B2E912C689CC001699C900DB8
:10335000789C900D1124FC01EA0DFB1DFD87EC8784
:103360001C82712C612CE12F110FFF0B95012E0F88
:103370003F1F3B872A87AC0CB11CA5014E0F5F1F76
:103380005F8B4E8BC1018D0D911DD7FC9A95998F46
:10339000888F4E85641608F062C0862D90E04885BF
:1033A0005985480F591F489D9001499D300D589DE2
:1033B000300D1124D901A20DB31DB98BA88BAA849D
:1033C000BB844C845D84DC80BA85DB1AE88DF98D82
:1033D000E80FF91FFD8BEC8B8D2D8A0D2E893F890F
:1033E000A216B306B9F1877061F48A819B810196B8
:1033F000EA89FB89AA81BB81EA0FFB1F74909B833A
:103400008A8377FE20C0AB8DBC8DED91FC91B98194
:10341000B13061F40484F585E02D2E813F814C8923
:103420005D89B5018B8D9C8D19950DC00684F7853E
:10343000E02DEE80FF808401940148895989B20112
:103440008B8D9C8D1995770CEFEFAE1ABE0A480C48
:10345000591CC2CF3C813C0D3C8363949ACFAB8D09
:10346000BC8DED91FC9111970688F789E02DCD0177
:103470006C960FB6F894DEBF0FBECDBFDF91CF9133
:103480001F910F91FF90EF90DF90CF90BF90AF9082
:103490009F908F907F906F905F904F903F902F9074
:1034A00019946C960FB6F894DEBF0FBECDBFDF91B6
:1034B000CF911F910F91FF90EF90DF90CF90BF9031
:1034C000AF909F908F907F906F905F904F903F90C4
:1034D0002F900895AF92BF92CF92EF92FF920F93E9
:1034E0001F93CF93DF93EC01262F888D998D009742
:1034F00009F03FC06A3059F41D861C862C898E85E0
:103500009F8538E0239F800D911D112440C06D30B0
:1035100009F4A8C08E898823C1F03C898C859D85DB
:1035200046E0349F800D911D112448855985481728
:1035300059075CF41D861C868E859F8548E0349F64
:10354000800D911D11249F878E87EA88FB8808894A
:1035500019894E855F856C857D85CC88CE01A4DD7B
:103560002C898C859D8536E0239F800D911D11242B
:1035700042C06A3079F41D861C862C89FC0136967F
:10358000E4918E859F852E9F800D911D11249F872C
:103590008E8768C06D3009F465C0FC0134963491A3
:1035A000631708F45FC03196E491E61708F45AC037
:1035B000FC013296A590B490462F50E0431B510970
:1035C00037E0349FB001359F700D1124A60EB71E51
:1035D000F501329634913196E491332311F0E111E3
:1035E0000DC0F5013496E4912C898C859D85E29F70
:1035F000800D911D11249D878C8734C0F50135966F
:1036000044915E89552311F16C89E32FF0E0E40FBA
:10361000F11D47FDFA956E9FD0016F9FB00D1124EB
:103620004C855D854A0F5B1FE885F985E417F50732
:103630006CF41D861C86FC013696E4918E859F8570
:103640006E9F800D911D11249F878E87EA88FB88CD
:10365000088919894E855F856C857D85CC88CE016A
:1036600023DDBFCF81E090E0DF91CF911F910F91DB
:10367000FF90EF90CF90BF90AF9008956F927F92A0
:103680008F929F92AF92BF92CF92DF92EF92FF9272
:103690000F931F93CF93DF93EC014B015A01690104
:1036A0003801E881F9810284F385E02D1995E881DC
:1036B000F9810288F389E02D87019601A501B40103
:1036C000CE011995E881F981A501460D571D41509C
:1036D00051090288F389E02D9601B401CE011995B4
:1036E000E881F9810088F189E02D9301A501B401F9
:1036F000CE011995E881F981C80CD91CB601615039
:1037000071090088F189E02D9301A501CE01199579
:10371000E881F9810688F789E02DCE01DF91CF910C
:103720001F910F91FF90EF90DF90CF90BF90AF90DF
:103730009F908F907F906F901994CF92DF92EF922D
:10374000FF920F931F93CF93DF9300D000D0CDB79C
:10375000DEB76C01DC01ED91FC916217730789F40F
:10376000041715072CF4942F852FA801092F182F63
:10377000041B150B98012F5F3F4F048CF58DE02D36
:1037800012C04017510709F5261737072CF4962F5A
:10379000872FB901292F382F261B370B2F5F3F4F5B
:1037A000068CF78DE02D8701C601199526960FB678
:1037B000F894DEBF0FBECDBFDF91CF911F910F9167
:1037C000FF90EF90DF90CF9008950284F385E02D75
:1037D0002D833E834B835C8369837A831995D6015D
:1037E000ED91FC910488F589E02D2D813E814B817E
:1037F0005C8169817A81C6011995D601ED91FC91B0
:103800000688F789E02DC60126960FB6F894DEBF2C
:103810000FBECDBFDF91CF911F910F91FF90EF9021
:10382000DF90CF901994EF92FF920F931F93DC01DA
:10383000ED91FC9111971A960D911C911B9718967A
:103840002D913C91199700A0F1A1E02D7B0140E062
:1038500050E060E070E019951F910F91FF90EF909C
:1038600008954F925F926F927F928F929F92AF9244
:10387000BF92CF92DF92EF92FF920F931F93CF935D
:10388000DF931F921F92CDB7DEB76C015A01390149
:103890004801DC01ED91FC910284F385E02D698300
:1038A0007A8319956981462E7A81572E640C751C8E
:1038B000D601ED91FC91461457046CF40088F1890F
:1038C000E02D87019401A501B201C6011995BFEF52
:1038D0004B1A5B0AEDCF0688F789E02DC6010F90E1
:1038E0000F90DF91CF911F910F91FF90EF90DF909C
:1038F000CF90BF90AF909F908F907F906F905F9090
:103900004F901994AF92BF92CF92DF92EF92FF92B5
:103910000F931F93CF93DF9300D01F92CDB7DEB7E5
:103920005C016901DC01ED91FC910284F385E02DDD
:103930004B835C8369837A831995D501ED91FC9162
:1039400069817A819B012C0D3D1D2150310904882C
:10395000F589E02D78014B815C818A01C5011995BB
:10396000D501ED91FC910688F789E02DC5010F90F6
:103970000F900F900F90DF91CF911F910F91FF90BB
:10398000EF90DF90CF90BF90AF901994AF92BF921D
:10399000CF92DF92EF92FF920F931F93CF93DF931B
:1039A00000D01F92CDB7DEB75C016901DC01ED915B
:1039B000FC910284F385E02D4B835C8369837A83D9
:1039C0001995D501ED91FC914B815C81C40ED51EFA
:1039D000B1E0CB1AD1080488F589E02D7801860181
:1039E00069817A819B01C5011995D501ED91FC9101
:1039F0000688F789E02DC5010F900F900F900F906A
:103A0000DF91CF911F910F91FF90EF90DF90CF90BA
:103A1000BF90AF9019940895EF92FF920F931F9368
:103A2000DC01ED91FC9100A0F1A1E02D19951F9111
:103A30000F91FF90EF9008950F931F93DC01ED918C
:103A4000FC91068CF78DE02D19951F910F9108952B
:103A50000F931F93DC01ED91FC91048CF58DE02D0B
:103A600019951F910F910895DC01ED91FC9100844F
:103A7000F185E02D199408952F923F924F925F9215
:103A80006F927F928F929F92AF92BF92CF92DF926E
:103A9000EF92FF920F931F93CF93DF9300D0CDB798
:103AA000DEB74C017B836A836A01590117019801D3
:103AB000241B350B37FF03C0319521953109C50112
:103AC0004A815B81841B950B97FF03C0919581957B
:103AD000910951E059838217930714F019820BC0A2
:103AE0009A2D8B2D5801092F182F9A818B81DB82FB
:103AF000CA82C92ED82E8A819B81A816B9065CF489
:103B00009C2D8D2D6801092F182F9A818B81BB82E6
:103B1000AA82A92EB82E2501AA81BB814A1A5B0A66
:103B200038016C187D0877FE03C0719461947108A8
:103B3000720157FE03C0BFEFEB1AFB0AF594E7943E
:103B4000C016D1061CF00FEF1FEF1FC001E010E000
:103B50001CC0D401ED91FC91B9810484F585E02D60
:103B60009101BB23C1F04A815B81B601C401199563
:103B7000E618F708F7FE04C0C00ED11EE40CF51CD1
:103B8000EA81FB813196FB83EA834A815B81A4163B
:103B9000B506FCF604C0A6016A817B81E7CF0F90D1
:103BA0000F900F90DF91CF911F910F91FF90EF90A9
:103BB000DF90CF90BF90AF909F908F907F906F904D
:103BC0005F904F903F902F9008950E94B53C1F93B7
:103BD000CF93DF93EC01162F8C8D9D8D892B31F0C7
:103BE0006CA97DA98EA99FA94AD50EC08A8D9B8DEF
:103BF000892B19F08DAD9EAD50D3EEA5FFA5908118
:103C00008BA9809589238083111102C066EA01C0C7
:103C100067EACE01A2D38C8D9D8D892B41F068ADD2
:103C200079AD8AAD9BADDF91CF911F9128C5EEA5EF
:103C3000FFA590818BA9892B80838A8D9B8D892BF1
:103C400021F0DF91CF911F9120C3DF91CF911F9180
:103C500008950F931F93CF93DF9377FF04C0260F30
:103C6000371F60E070E0DC011496CD91DC91159770
:103C7000FB01E20FF31FCE17DF071CF49E01261B8A
:103C8000370B121613060CF046C0FA0157FD379693
:103C9000DF01E3E0B595A795EA95E1F7AC9FF00168
:103CA000AD9FF00DBC9FF00D11246E0F7F1FDC0146
:103CB0005E96ED91FC915F97E60FF71F47705527D1
:103CC00081E090E001C0880F4A95EAF7482F013063
:103CD000110539F078F002301105E9F42E0F3F1F7D
:103CE00013C02E0F3F1FE217F307A9F08081842B2A
:103CF0008193F9CF80952E0F3F1FE217F30759F0FC
:103D0000908198239193F9CFE217F30721F08081F6
:103D100084278193F9CFDF91CF911F910F9108955F
:103D2000EF92FF920F931F93CF93DF93EC0177FDF8
:103D3000A4C0EC80FD806E157F050CF09EC057FF7F
:103D400004C0240F351F40E050E08E819F81FA01AE
:103D5000E20FF31F8E179F071CF49C01241B350BE9
:103D6000121613060CF089C0922F842F8695869523
:103D700086958E9DD0018F9DB00D11246A0F7B1FFB
:103D8000AE8DBF8DA60FB71F4770A9F188E0841BC9
:103D9000482F682F70E0FB01EE5BF74FE491281786
:103DA00090F4621B71092FEF30E002C03595279522
:103DB0006A95E2F7E2230130110541F070F002301C
:103DC000110579F05AC00130110519F48C91E82BD6
:103DD0000AC00130110508F049C0E0958C91E82334
:103DE00002C08C91E827EC932C813D81941708F454
:103DF00044C0A20FB31FE92FE41BE830F8F00230F3
:103E0000110561F48E2F9C9190959C932C813D819E
:103E1000A20FB31F88508830B0F70FC081E00115A2
:103E2000110509F480E081959E2F8C932C813D81B2
:103E3000A20FB31F98509830C0F7E770EE23E9F057
:103E4000F0E0E65CF74FE4910130110539F048F0FD
:103E50000230110591F48C91E82706C08C91E82B73
:103E600003C0E0958C91E823EC9307C00230110564
:103E700009F4B7CFAE0DBF1DBECFDF91CF911F911B
:103E80000F91FF90EF900895FC0177FDB9C08085F8
:103E90009185681779070CF0B3C057FDB1C08285D2
:103EA0009385481759070CF008958589823079F475
:103EB00084819581DC01A61BB70BBD01615071099E
:103EC00086819781DC01A41BB50BAD010EC0833048
:103ED00009F084C064277527CB01842795276827BC
:103EE000792746815781481B590B41505109213090
:103EF000310531F048F12230310509F44AC0089506
:103F0000CA0157FD07969C01A3E035952795AA9510
:103F1000E1F7A481B5812A9FC0012B9F900D3A9FA4
:103F2000900D1124680F791F068CF78DE02DE60F98
:103F3000F71F4770552781E090E001C0880F4A9530
:103F4000EAF79081892B48C0CA0157FD07969C016A
:103F500093E0359527959A95E1F7A481B5812A9F3D
:103F6000C0012B9F900D3A9F900D1124680F791F6F
:103F7000068CF78DE02DE60FF71F4770552781E07F
:103F800090E001C0880F4A95EAF7809590818923D7
:103F900023C0CA0157FD07969C0183E035952795FC
:103FA0008A95E1F7A481B5812A9FC0012B9F900DCE
:103FB0003A9F900D1124680F791F068CF78DE02D24
:103FC000E60FF71F4770552781E090E001C0880F8A
:103FD0004A95EAF79081892780830895813009F016
:103FE00086CF64277527462757276427752784813E
:103FF0009581DC01A61BB70BBD016150710977CF1C
:104000000895089581E090E030913C0320913B03B6
:10401000321710F480E090E0919581959109089510
:1040200080913C0390913B03891730F48F5F80931C
:104030003C0380E090E008958FEF9FEF089580911A
:104040003B0390E020913C03821B91090895089561
:1040500080E090E0089585ED8093BC008091BC00E5
:1040600084FDFCCF10923A03089540915205262F0B
:1040700030E0240F311D21323105DCF420913A0368
:104080002430C9F4FC0180E090E0861758F43091A8
:1040900052052191DC01A05DBA4FA30FB11D2C93F5
:1040A0000196F3CF80915205680F6093520580E02E
:1040B000089581E0089582E00895CF92DF92EF9213
:1040C000FF920F931F93CF93DF937C01262F972F9F
:1040D0008A0180917803882391F0C62FD72F6E0133
:1040E000C40ED51ECC15DD0569F06991D701ED919F
:1040F000FC910190F081E02DC7011995F3CF642F59
:10410000822FB3DFC801DF91CF911F910F91FF90F4
:10411000EF90DF90CF900895CF93DF931F92CDB7AC
:10412000DEB76983209178032223D1F020917503B3
:10413000203240F021E030E0FC013383228380E034
:1041400090E014C080917603E82FF0E0E556FA4F36
:10415000998190838F5F809376038093750304C069
:1041600061E0CE01019681DF81E090E00F90DF9168
:10417000CF9108950F931F93CF93DF93DC01559652
:10418000EC915597E23071F0E330E9F0E13071F5F0
:10419000FB0114960D90BC91A02DA41BB50BA21B86
:1041A000B30B18C0EC01EC81FD81E61BF70BBF01DE
:1041B00061507109EE81FF81DF01A41BB50BAD01D8
:1041C000421B530B13C0DA01EC01EE81FF81E61BA9
:1041D000F70B3197F7FD0BC0EC014E815F81E417BF
:1041E000F5072CF4AF01BD0134DD01C099DDDF918D
:1041F000CF911F910F9108950F931F93DC01559656
:10420000EC915597E23061F0E33009F1E13079F556
:104210001496ED91FC911597E41BF50B319723C093
:10422000DC011496ED91FC911597DF01A61BB70BED
:10423000BD01DC011696ED91FC911797DF01A41BDF
:10424000B50BAD0141505109621B730B10C0FA014F
:10425000DC0116964D915C911797DA01A61BB70BFE
:10426000BD01621B730BAB01BF015ADD0BC057FDD3
:1042700009C0DC011696ED91FC9117974E175F0768
:104280000CF4E7DC1F910F91089508958EBD000096
:104290000DB407FEFDCF8EB508958CBD9DBD08956C
:1042A0002091750390917703213208F04AC08091E4
:1042B0003A038111FCCF32E030933A0331E030937E
:1042C00039033FEF30939A05109299052093980592
:1042D000ABE9B5E048E755E0FA013E2F341B321751
:1042E00018F43D913193F9CF10927705209177051D
:1042F000990F922B9093770590913803913061F448
:1043000010923803909177059093BB009091BC0078
:1043100093FDF8CF95EC01C095EE9093BC00909181
:104320003A039230E1F390919A059F3F79F08091A2
:104330009A05803241F080919A05803331F084E013
:1043400005C081E003C082E001C083E010927603E3
:10435000109275031092780308951F93CF93DF9303
:10436000FC01848D958D009721F1162FEF0120A17E
:1043700031E0309378032093770310927603109204
:104380007503DC01ED91FC910190F081E02D60E07E
:1043900019958C8D9D8DDC01ED91FC910190F08142
:1043A000E02D612F19958C8D9D8DDF91CF911F91FF
:1043B00077CFA4A5B5A59C9182A9809589238C93DC
:1043C000828D938D892B29F0862FDF91CF911F91BC
:1043D0005DCF28E030E080E8A0A5B1A590A9482FE6
:1043E000462319F04C91942B03C04C919095942343
:1043F0009C93A2A5B3A54C9191A9942B9C93A2A5A3
:10440000B3A54C9191A9909594239C9386952150A6
:10441000310911F7DF91CF911F9108951F920F92EB
:104420000FB60F9211240BB60F922F933F934F9319
:104430005F936F937F938F939F93AF93BF93EF930C
:10444000FF938091B900887F803609F49CC068F59D
:10445000883209F45BC090F4803109F454C038F418
:10446000882309F4F6C0883009F44DC0F5C08831BE
:1044700009F44CC0803209F45DC0EEC0803409F408
:1044800068C048F4803309F455C0883309F0E4C0AB
:1044900080939A05D8C0803509F44FC0883509F457
:1044A0005DC0883409F0D8C0D6C0883909F4C7C0C7
:1044B000A8F4883709F467C038F4883609F463C073
:1044C000803709F460C0C8C0883809F4B8C08039A2
:1044D00009F45FC0803809F0BFC05BC0803B09F4BD
:1044E00086C038F4803A09F466C0883A09F47FC07F
:1044F000B3C0803C09F4A7C0883C09F4A4C0883B41
:1045000009F48AC0A9C08091770510C090919905DF
:1045100080919805981770F5E091990581E08E0FCC
:1045200080939905F0E0E858FA4F80818093BB00B2
:1045300085EC86C080939A058EC0E091990581E054
:104540008E0F809399058091BB00F0E0E858FA4FF8
:10455000808390919905809198056EC0E0919905AE
:1045600081E08E0F809399058091BB00F0E0E858C0
:10457000FA4F80838091390381116DC081E080936F
:10458000380384EA61C083E080933A031092760591
:10459000CFCF80917605803208F051C0E09176054A
:1045A00081E08E0F809376058091BB00F0E0EA5A9F
:1045B000FA4F8083BDCF85EC8093BC0010923A0304
:1045C00080917605803230F4E0917605F0E0EA5A89
:1045D000FA4F10826091760570E0E0915405F091F9
:1045E000550586E595E019951092760535C084E06D
:1045F00080933A031092530510925205E0915005B2
:10460000F0915105199580915205811105C081E005
:104610008093520510923005E091530581E08E0F92
:1046200080935305F0E0E05DFA4F80818093BB00FA
:104630009091530580915205981708F479CF85E839
:104640008093BC0009C085EC8093BC0010923A03B3
:1046500003C010929A05FFDCFF91EF91BF91AF91DB
:104660009F918F917F916F915F914F913F912F918A
:104670000F900BBE0F900FBE0F901F9018959B01CF
:10468000AC0160E074E284EF90E00E945E3BDA01EE
:10469000C9014097A109B109B695A7959795879546
:1046A0008093B8000895CF93DF93EC01E881F981FE
:1046B0000190F081E02DCE0119951816190644F4E9
:1046C000E881F9810684F785E02DCE011995EECFBA
:1046D000DF91CF910895CF93DF93EC01E881F981C9
:1046E0000190F081E02DCE0119951816190644F4B9
:1046F000E881F9810684F785E02DCE011995EECF8A
:10470000DF91CF910895EF92FF920F931F93CF9374
:10471000DF931F92CDB7DEB77C018B0161E0FC0116
:10472000828149830E941D2EF801498150E0CF010A
:10473000801B910B8417950740F481919091C800DC
:1047400095FFFCCF8093CE00F2CF8091C80086FF0A
:10475000FCCF80E48093C8001092C80060E0F701AD
:1047600082810F90DF91CF911F910F91FF90EF9079
:104770000C941D2EEF92FF920F931F93CF93DF9314
:10478000DC0112962D913C9113971216130624F515
:1047900021303105A1F0EC01EC81FD81E280F38054
:1047A00000811181CF010E941D3CFD82EC828A8133
:1047B0009B8101979B838A831C86C8010FC0DC0103
:1047C000ED91FC910484F585E02DDF91CF911F914F
:1047D0000F91FF90EF90199480E090E0DF91CF91DE
:1047E0001F910F91FF90EF900895EF92FF920F931A
:1047F0001F93CF93DF93DC0112962D913C91139779
:104800001216130624F521303105A1F0EC01EC81DC
:10481000FD81E280F38000811181CF010E941D3C67
:10482000FD82EC828A819B8101979B838A831C860F
:10483000C8010FC0DC01ED91FC910484F585E02DE9
:10484000DF91CF911F910F91FF90EF90199480E02D
:1048500090E0DF91CF911F910F91FF90EF9008951D
:10486000EF92FF920F931F93CF93DF93FC0162812E
:1048700073811616170664F5EC0114866130710514
:10488000C1F0625071090E943C127C01FC018281DE
:104890009381FC01008111810E941D3CF70113826C
:1048A0001282FF82EE828A819B8101979B838A8399
:1048B0000DC084819581FC01008111810E941D3C05
:1048C0001D821C821F821E821B821A82C80102C0A6
:1048D00080E090E0DF91CF911F910F91FF90EF90DA
:1048E00008950F931F93CF93DF9377FD3EC0DC01B4
:1048F00012962D913C91139762177307B4F56115C9
:10490000710531F4ED91FC910684F785E02D0BC023
:10491000215031096217730759F4DC01ED91FC91C4
:104920000484F585E02DDF91CF911F910F911994AB
:10493000EC01615071090E943C12DC011296ED916C
:10494000FC911397008111812281338113963C934E
:104950002E931297CF010E941D3C8A819B81019763
:104960009B838A831C86C80102C080E090E0DF91AF
:10497000CF911F910F910895CF93DF9377FD0EC0D4
:10498000FC01228133816217730744F4EA010E941B
:104990003C12FC01D183C08381E001C080E0DF9143
:1049A000CF910895EF92FF920F931F93CF93DF93D0
:1049B000DC0112960D911C9113970115110561F4FC
:1049C000ED91FC910480F581E02DDF91CF911F9155
:1049D0000F91FF90EF9019947B01EC0184E090E03F
:1049E0000E94883B2C813D81FC0133832283F1822C
:1049F000E0829D838C830F5F1F4F1B830A831C867D
:104A000081E0DF91CF911F910F91FF90EF9008957A
:104A1000CF92DF92EF92FF920F931F93CF93DF938A
:104A20009B01BA01DC0112964D915C9113972417FA
:104A3000350734F0ED91FC910480F581E02D09C03B
:104A40002115310579F4DC01ED91FC910680F781A7
:104A5000E02DDF91CF911F910F91FF90EF90DF90AC
:104A6000CF9019947B01E9018C0184E090E00E94D1
:104A7000883B6C01FC011182108213821282BE01FC
:104A800061507109C8010E943C12D6011196FC9236
:104A9000EE92FC012281338113963C932E93129760
:104AA000D382C282D80112968D919C911397019660
:104AB00013969C938E9312971C961C9281E0DF9123
:104AC000CF911F910F91FF90EF90DF90CF900895BD
:104AD000EF92FF920F931F93CF93DF93DC01129617
:104AE0000D911C9113970115110561F4ED91FC9145
:104AF0000480F581E02DDF91CF911F910F91FF9000
:104B0000EF9019947B01EC0184E090E00E94883BD7
:104B10002C813D81FC0133832283F182E0829D83DD
:104B20008C830F5F1F4F1B830A831C8681E0DF91FC
:104B3000CF911F910F91FF90EF9008951F920F92C8
:104B40000FB60F9211240BB60F92EF92FF920F93B4
:104B50001F932F933F934F935F936F937F938F9305
:104B60009F93AF93BF93EF93FF93CF93DF9300D0C7
:104B7000CDB7DEB70091BB051091BC05011511053D
:104B800009F4D0C09091C80097FF0FC02091C900D0
:104B90008091CE009C7149F421FB992790F9592FFF
:104BA00040E09A01282BC90102C08FEF9FEF8F3F91
:104BB0003FEF930709F4B6C0F801E05CFE4F1082A6
:104BC0001182128213828F3F910509F008F48FC081
:104BD000F801118E278130858217930791F480E2C6
:104BE00089838A8342E0BE016F5F7F4FC8018BDDFE
:104BF00080E090E0892B09F495C081EE0E940000CE
:104C000091C0F801258136818217930709F052C0BF
:104C100081E2898384E28A8385E08B838081882393
:104C200029F0E35CFE4F80818F3F39F443E0BE0101
:104C30006F5F7F4FC80167DD75C0F801428D442367
:104C4000B1F1838D882329F0B801655E7F4FC801DB
:104C50005ADDF801B396980126553F4F8081DF0158
:104C600019978C9380E090E07F014AE1E41AF10803
:104C7000BF0163527109D701A80FB91F5B964C9110
:104C8000DB01A80FB91F5B964C9301968830910504
:104C900091F73996E217F30709F7F801EF55FF4F3F
:104CA000108231961192E217F307E1F73BC0F80149
:104CB000128E38C08036F1E09F0731F0F801238171
:104CC000348182179307F1F4F80112861186148655
:104CD000138616861586108A1786128A118A148AF8
:104CE000138A168A158A108E178A21E00AC0823527
:104CF000910541F421E030E0F801348723873287C1
:104D00002187218FF801218D222361F021853285B1
:104D10002F5F3F4F32872187220F331FE20FF31F90
:104D2000928781870F900F900F90DF91CF91FF9125
:104D3000EF91BF91AF919F918F917F916F915F9113
:104D40004F913F912F911F910F91FF90EF900F90F6
:104D50000BBE0F900FBE0F901F9018950C94503BF8
:104D60000C94483BDC011496ED91FC9115971C9630
:104D70008C911C97882361F01A962D913C911B977A
:104D8000621773072CF01896ED91FC9119970AC0E1
:104D900020E030E007C03097C9F00280F381E02DB9
:104DA0002F5F3F4F26173707B4F32617370771F4E5
:104DB00081E01C968C931C971B963C932E931A971C
:104DC0001996FC93EE931897CF01089580E090E038
:104DD0000895EF92FF920F931F93CF93DF93FC01FF
:104DE00062817381161617065CF5EC01148661303A
:104DF0007105B9F062507109B5DF7C01FC01828157
:104E00009381FC01008111810E941D3CF7011382F6
:104E10001282FF82EE828A819B8101979B838A8323
:104E20000DC084819581FC01008111810E941D3C8F
:104E30001D821C821F821E821B821A82C80102C030
:104E400080E090E0DF91CF911F910F91FF90EF9064
:104E500008950F931F93CF93DF9377FD3DC0DC013F
:104E600012962D913C91139762177307ACF561155B
:104E7000710531F4ED91FC910684F785E02D0BC0AE
:104E8000215031096217730759F4DC01ED91FC914F
:104E90000484F585E02DDF91CF911F910F91199436
:104EA000EC01615071095EDFDC011296ED91FC911D
:104EB0001397008111812281338113963C932E93A5
:104EC0001297CF010E941D3C8A819B8101979B8391
:104ED0008A831C86C80102C080E090E0DF91CF91F8
:104EE0001F910F910895CF93DF9377FD0DC0FC01C3
:104EF00022813381621773073CF4EA0133DFFC013E
:104F0000D183C08381E001C080E0DF91CF9108951B
:104F1000CF92DF92EF92FF920F931F93CF93DF9385
:104F20009B01BA01DC0112964D915C9113972417F5
:104F3000350734F0ED91FC910480F581E02D09C036
:104F40002115310579F4DC01ED91FC910680F781A2
:104F5000E02DDF91CF911F910F91FF90EF90DF90A7
:104F6000CF9019947B01E9018C0184E090E00E94CC
:104F7000883B6C01FC011182108213821282BE01F7
:104F800061507109C801EEDED6011196FC92EE92D5
:104F9000FC012281338113963C932E931297D38286
:104FA000C282D80112968D919C9113970196139607
:104FB0009C938E9312971C961C9281E0DF91CF9167
:104FC0001F910F91FF90EF90DF90CF900895EF9297
:104FD000FF920F931F93CF93DF931F92CDB7DEB74E
:104FE0008C016983BDDEE82EF12CFE2CEE24C80175
:104FF0000196B6DE9701282BC901209156036981DD
:105000006217F1F08F3037E29307D0F411E010937C
:105010006A0390936C0380936B036093560380E163
:1050200090E09CDEE0917F03F09180038481958184
:10503000909391038093900310938F0310939203A6
:105040000F90DF91CF911F910F91FF90EF900895F6
:10505000CF93DF93EB01C40FD11DE1E0F0E00C2E04
:1050600002C0EE0FFF1F0A94E2F7A0916503B09112
:105070006603EA27FB27F0936603E0936503242F7A
:10508000260F02C0F695E795CA95E2F74E2F4170BC
:10509000682F892FDED2E2D660934E0370934F03C0
:1050A0008093500390935103D9D660935903709322
:1050B0005A0380935B0390935C0380916503909106
:1050C0006603DF91CF910895CF92DF92EF92FF9226
:1050D0000F931F93CF93DF93EC01162F672F6A0175
:1050E0003DDE612FCE01019639DEE12CF12C08E086
:1050F00010E02AE030E040E050E06EE670E081EF42
:1051000094E00E94311CE1EFF4E08EE690E0958798
:1051100084871786168681E0848BC601DF91CF9144
:105120001F910F91FF90EF90DF90CF900C941C1681
:10513000EF92FF921F93CF93DF931F92CDB7DEB70D
:105140007C01162F672F498309DE612FC701019665
:1051500005DE4981642F80E190E00F90DF91CF91CF
:105160001F91FF90EF90FACDDF92EF92FF920F9395
:105170001F93CF93DF93D62E082F10E0C801F0DDE8
:10518000C82FD0E0DC2FCC27D0935303C093520319
:10519000C8010196E5DD9E01282BC90190935303B8
:1051A00080935203803137E2930708F046C04D2DBB
:1051B00048606FEF680F0197892FA3D4E12CF12C81
:1051C00008E010E026E230E040E050E069E170E005
:1051D00081EF94E00E94311C81E08093050589E114
:1051E00090E09093FE048093FD04109200051092CD
:1051F000FF04609152037091530380E090E04AE015
:105200000E941D16D11003C080E293E002C082E22A
:1052100093E00E941C1622D660935D0370935E0398
:1052200080935F0390936003DF91CF911F910F9163
:10523000FF90EF90DF900C949014DF91CF911F912D
:105240000F91FF90EF90DF900895EF92FF920F93F0
:105250001F93CF93DF93EC01E12CF12C08E010E0D9
:1052600029E030E040E050E064E670E081EF94E057
:105270000E94311CE1EFF4E084E690E0958784879A
:105280001786168681E0848BCE010E941C16DF9162
:10529000CF911F910F91FF90EF900C9490144F922B
:1052A0005F926F927F92AF92BF92CF92DF92EF9216
:1052B000FF920F931F93CF93DF93E12CF12C06E322
:1052C00010E02FE730E04AE050E060E070E081EF6E
:1052D00094E00E94311C81E090E09093040580935B
:1052E0000305909302058093010582E080930505F4
:1052F000C3E0D0E0D093FE04C093FD048BE090E0C7
:10530000909300058093FF0460916B0370916C0390
:1053100080E090E04AE00E941D16D093FE04C09306
:10532000FD048FE190E0909300058093FF0480914D
:105330006E0360916D03823029F4E62FF0E0E45CA7
:10534000FD4F608170E080E090E04AE00E941D1611
:10535000E12CF12C07E110E02DE130E04AE050E0D3
:1053600065E470E081EF94E00E94311C80916F034E
:1053700054E1E52EF12C0AE110E0813019F424E02B
:105380003EE002C024EB3DE04AE050E066E470E01D
:1053900081EF94E00E945D16E12CF12C08E010E012
:1053A0002CE130E040E050E064E670E081EF94E012
:1053B0000E94311C81E08093050584E690E0909383
:1053C000FE048093FD04109200051092FF0480916A
:1053D0005603813059F038F0823059F0833061F44F
:1053E00084ED92E00BC08EEC92E008C080ED92E07C
:1053F00005C082ED92E002C084E293E00E941C1698
:105400008EE690E09093FE048093FD0410920005D8
:105410001092FF0480916E03823039F0843041F0A5
:1054200081110AC086E293E005C08AE293E002C0DF
:1054300089E293E00E941C168091700380FF0FC0E8
:1054400046E1E42EF12C02E110E022E73DE040E2EB
:1054500050E066E470E081EF94E00E945D161092E7
:105460000405109203051092020510920105C4E094
:10547000D0E0412C512C32014394CC24C394D12C44
:1054800038E3A32EB12C80917003909171039601A3
:10549000042C02C0220F331F0A94E2F782239323C5
:1054A000892B29F18AE0E82EF12C0AE010E02EE5A4
:1054B0003DE046E350E0BE0181EF94E00E945D16BE
:1054C000CE0102969093FE048093FD04B0920005F5
:1054D000A092FF048AE0481631F04AE0C301B2010D
:1054E0000E941D1604C08DE293E00E941C168FEFEF
:1054F000481A580A680A780A2C96CC37D10519F64A
:1055000081E090E090930405809303059093020559
:10551000809301050E94901410926903DF91CF914E
:105520001F910F91FF90EF90DF90CF90BF90AF90C1
:105530007F906F905F904F900895EF92FF920F933E
:105540001F93E12CF12C0AE010E024E130E040E070
:1055500050E065E470E081EF94E00E94311C1F91FF
:105560000F91FF90EF900C949014EF92FF920F9395
:105570001F93E12CF12C0AE010E024E130E040E040
:1055800050E065E470E081EF94E00E94311CE1EFAF
:10559000F4E081E0848B86E490E095878487178629
:1055A00016868FE293E00E94C0158DE193E00E9481
:1055B000C0151F910F91FF90EF900C949014EF92F3
:1055C000FF920F931F93E12CF12C0AE010E024E1ED
:1055D00030E040E050E065E470E081EF94E00E944C
:1055E000311CE1EFF4E081E0848B86E490E0958764
:1055F00084871786168683E393E00E94C0158DE1A9
:1056000093E00E94C0151F910F91FF90EF900C94B2
:1056100090140E94F317E1EFF4E082E0848B81E0C4
:1056200090E0938B828B918B808B158614868AE118
:1056300090E09787868783E59DE00E94D1158DE1F4
:1056400093E00E94C0158AE49DE00E94D1150C945D
:1056500090148F929F92AF92BF92CF92DF92EF926F
:10566000FF920F931F93CF93DF93CDB7DEB72797AA
:105670000FB6F894DEBF0FBECDBFF82EE62E022F78
:1056800011E0413009F010E06E2D8F2D4F830E9404
:10569000E2124F81053008F088C0C82ED12C29E0D5
:1056A000829FF0011124EF5BFB4F9081892F8F7156
:1056B0004230C1F4011106C094FB112710F921E01A
:1056C000122712C0282F30E09FEF900F02C03595AF
:1056D00027959A95E2F72170332741E02427122F6E
:1056E000117009C0011107C0112319F0982F9061A2
:1056F00019C09F7017C0202F30E02150310941E0C0
:1057000050E060E070E004C0440F551F661F771F33
:105710002A95D2F7112319F0982F942B03C04095A6
:10572000942F9823FE0131965F0186E011928A95AD
:10573000E9F784EE898380E28A83FB82EC829D8391
:1057400066E0C5010E94D11266E0C5010E94A71261
:10575000982E01110FC089E08C9DF0018D9DF00DF8
:105760001124EF5BFB4F8081112311F0806188C011
:105770008F7E86C0202F30E089E08C9DF0018D9DCA
:10578000F00D1124EF5BFB4F2150310981E090E0D7
:10579000A0E0B0E004C0880F991FAA1FBB1F2A9584
:1057A000D2F7112309F48FC169C09BEF900F943099
:1057B00008F068C0C82ED12C29E0829FF001112486
:1057C000EE5BFB4F20812F70A02EB12C423081F474
:1057D000822F90E0A5014550510902C0959587950B
:1057E0004A95E2F78170992731E08327182F1170CD
:1057F000A5014550510981E090E0A0E0B0E004C06F
:10580000880F991FAA1FBB1F4A95D2F7112311F0C9
:10581000282B02C080952823AE014F5F5F4F4A01BD
:1058200086E0FA0111928A95E9F784EE898381E294
:105830008A83FB82EC822D8366E0C4010E94D11230
:1058400066E0C4010E94A712982E89E08C9DF001A9
:105850008D9DF00D1124EE5BFB4F112309F45FC009
:1058600085010550110981E090E0A0E0B0E004C09E
:10587000880F991FAA1FBB1F0A95D2F72081822B80
:10588000808326C197EF900F943008F04CC0C82E4B
:10589000D12C29E0829FF0011124EE5BFB4F808127
:1058A00090E024E0959587952A95E1F7A02EB12CFC
:1058B000423081F4950129503109AC0102C055955F
:1058C00047952A95E2F79A012170332751E0252761
:1058D000122F117095012950310941E050E060E02C
:1058E00070E004C0440F551F661F771F2A95D2F73A
:1058F000112319F0982F942B03C04095942F9823CF
:10590000FE0131964F0186E011928A95E9F784EE07
:10591000898382E28A83FB82EC829D838DCF85011D
:1059200005501109C5C093EF900F983008F05EC084
:10593000C82ED12C29E0829FF0011124ED5BFB4F92
:105940002081A02EB12C423081F4822F90E0A5015D
:105950004D50510902C0959587954A95E2F781709F
:10596000992731E08327182F1170A5014D50510957
:1059700081E090E0A0E0B0E004C0880F991FAA1F6A
:10598000BB1F4A95D2F7112319F0922F982B03C011
:105990008095982F9223AE014F5F5F4F4A0186E0BA
:1059A000FA0111928A95E9F784EE898383EF8A835D
:1059B000FB82EC829D8366E0CA010E94D11266E000
:1059C000C4010E94A712982E89E08C9DF0018D9D44
:1059D000F00D1124ED5BFB4F112321F085010D50DB
:1059E000110941CF85010D50110962C09BEE900F46
:1059F000983008F06CC0C82ED12C29E0829FF001AD
:105A00001124EC5BFB4F2081A02EB12C423081F49D
:105A1000822F90E0A5014551510902C095958795C7
:105A20004A95E2F78170992731E08327182F11708A
:105A3000A5014551510981E090E0A0E0B0E004C02B
:105A4000880F991FAA1FBB1F4A95D2F7112319F07F
:105A5000922F982B03C08095982F9223AE014F5F11
:105A60005F4F4A0186E0FA0111928A95E9F784EEC8
:105A7000898388E28A83FB82EC829D8366E0CA0187
:105A80000E94D11266E0C4010E94A712982E89E0FC
:105A90008C9DF0018D9DF00D1124EC5BFB4F1123CB
:105AA00021F0850105511109DECE8501055111094D
:105AB00081E090E0A0E0B0E004C0880F991FAA1F29
:105AC000BB1F0A95D2F7809590818923D9CE912C5E
:105AD00041E06E2D8F2D0E943E13892D27960FB623
